{
  "_format": "hh-sol-artifact-1",
  "contractName": "EpicNFT",
  "sourceName": "contracts/EpicNFT.sol",
  "abi": [
    {
      "inputs": [],
      "stateMutability": "nonpayable",
      "type": "constructor"
    },
    {
      "anonymous": false,
      "inputs": [
        {
          "indexed": true,
          "internalType": "address",
          "name": "owner",
          "type": "address"
        },
        {
          "indexed": true,
          "internalType": "address",
          "name": "approved",
          "type": "address"
        },
        {
          "indexed": true,
          "internalType": "uint256",
          "name": "tokenId",
          "type": "uint256"
        }
      ],
      "name": "Approval",
      "type": "event"
    },
    {
      "anonymous": false,
      "inputs": [
        {
          "indexed": true,
          "internalType": "address",
          "name": "owner",
          "type": "address"
        },
        {
          "indexed": true,
          "internalType": "address",
          "name": "operator",
          "type": "address"
        },
        {
          "indexed": false,
          "internalType": "bool",
          "name": "approved",
          "type": "bool"
        }
      ],
      "name": "ApprovalForAll",
      "type": "event"
    },
    {
      "anonymous": false,
      "inputs": [
        {
          "indexed": false,
          "internalType": "address",
          "name": "sender",
          "type": "address"
        },
        {
          "indexed": false,
          "internalType": "uint256",
          "name": "tokenId",
          "type": "uint256"
        }
      ],
      "name": "NewEpicNFTMinted",
      "type": "event"
    },
    {
      "anonymous": false,
      "inputs": [
        {
          "indexed": true,
          "internalType": "address",
          "name": "from",
          "type": "address"
        },
        {
          "indexed": true,
          "internalType": "address",
          "name": "to",
          "type": "address"
        },
        {
          "indexed": true,
          "internalType": "uint256",
          "name": "tokenId",
          "type": "uint256"
        }
      ],
      "name": "Transfer",
      "type": "event"
    },
    {
      "inputs": [
        {
          "internalType": "address",
          "name": "to",
          "type": "address"
        },
        {
          "internalType": "uint256",
          "name": "tokenId",
          "type": "uint256"
        }
      ],
      "name": "approve",
      "outputs": [],
      "stateMutability": "nonpayable",
      "type": "function"
    },
    {
      "inputs": [
        {
          "internalType": "address",
          "name": "owner",
          "type": "address"
        }
      ],
      "name": "balanceOf",
      "outputs": [
        {
          "internalType": "uint256",
          "name": "",
          "type": "uint256"
        }
      ],
      "stateMutability": "view",
      "type": "function"
    },
    {
      "inputs": [
        {
          "internalType": "uint256",
          "name": "tokenId",
          "type": "uint256"
        }
      ],
      "name": "getApproved",
      "outputs": [
        {
          "internalType": "address",
          "name": "",
          "type": "address"
        }
      ],
      "stateMutability": "view",
      "type": "function"
    },
    {
      "inputs": [
        {
          "internalType": "address",
          "name": "owner",
          "type": "address"
        },
        {
          "internalType": "address",
          "name": "operator",
          "type": "address"
        }
      ],
      "name": "isApprovedForAll",
      "outputs": [
        {
          "internalType": "bool",
          "name": "",
          "type": "bool"
        }
      ],
      "stateMutability": "view",
      "type": "function"
    },
    {
      "inputs": [],
      "name": "makeAnEpicNFT",
      "outputs": [],
      "stateMutability": "nonpayable",
      "type": "function"
    },
    {
      "inputs": [],
      "name": "name",
      "outputs": [
        {
          "internalType": "string",
          "name": "",
          "type": "string"
        }
      ],
      "stateMutability": "view",
      "type": "function"
    },
    {
      "inputs": [
        {
          "internalType": "uint256",
          "name": "tokenId",
          "type": "uint256"
        }
      ],
      "name": "ownerOf",
      "outputs": [
        {
          "internalType": "address",
          "name": "",
          "type": "address"
        }
      ],
      "stateMutability": "view",
      "type": "function"
    },
    {
      "inputs": [
        {
          "internalType": "uint256",
          "name": "tokenId",
          "type": "uint256"
        }
      ],
      "name": "pickRandomFirstWord",
      "outputs": [
        {
          "internalType": "string",
          "name": "",
          "type": "string"
        }
      ],
      "stateMutability": "view",
      "type": "function"
    },
    {
      "inputs": [
        {
          "internalType": "uint256",
          "name": "tokenId",
          "type": "uint256"
        }
      ],
      "name": "pickRandomSecondWord",
      "outputs": [
        {
          "internalType": "string",
          "name": "",
          "type": "string"
        }
      ],
      "stateMutability": "view",
      "type": "function"
    },
    {
      "inputs": [
        {
          "internalType": "uint256",
          "name": "tokenId",
          "type": "uint256"
        }
      ],
      "name": "pickRandomThirdWord",
      "outputs": [
        {
          "internalType": "string",
          "name": "",
          "type": "string"
        }
      ],
      "stateMutability": "view",
      "type": "function"
    },
    {
      "inputs": [
        {
          "internalType": "address",
          "name": "from",
          "type": "address"
        },
        {
          "internalType": "address",
          "name": "to",
          "type": "address"
        },
        {
          "internalType": "uint256",
          "name": "tokenId",
          "type": "uint256"
        }
      ],
      "name": "safeTransferFrom",
      "outputs": [],
      "stateMutability": "nonpayable",
      "type": "function"
    },
    {
      "inputs": [
        {
          "internalType": "address",
          "name": "from",
          "type": "address"
        },
        {
          "internalType": "address",
          "name": "to",
          "type": "address"
        },
        {
          "internalType": "uint256",
          "name": "tokenId",
          "type": "uint256"
        },
        {
          "internalType": "bytes",
          "name": "_data",
          "type": "bytes"
        }
      ],
      "name": "safeTransferFrom",
      "outputs": [],
      "stateMutability": "nonpayable",
      "type": "function"
    },
    {
      "inputs": [
        {
          "internalType": "address",
          "name": "operator",
          "type": "address"
        },
        {
          "internalType": "bool",
          "name": "approved",
          "type": "bool"
        }
      ],
      "name": "setApprovalForAll",
      "outputs": [],
      "stateMutability": "nonpayable",
      "type": "function"
    },
    {
      "inputs": [
        {
          "internalType": "bytes4",
          "name": "interfaceId",
          "type": "bytes4"
        }
      ],
      "name": "supportsInterface",
      "outputs": [
        {
          "internalType": "bool",
          "name": "",
          "type": "bool"
        }
      ],
      "stateMutability": "view",
      "type": "function"
    },
    {
      "inputs": [],
      "name": "symbol",
      "outputs": [
        {
          "internalType": "string",
          "name": "",
          "type": "string"
        }
      ],
      "stateMutability": "view",
      "type": "function"
    },
    {
      "inputs": [
        {
          "internalType": "uint256",
          "name": "tokenId",
          "type": "uint256"
        }
      ],
      "name": "tokenURI",
      "outputs": [
        {
          "internalType": "string",
          "name": "",
          "type": "string"
        }
      ],
      "stateMutability": "view",
      "type": "function"
    },
    {
      "inputs": [
        {
          "internalType": "address",
          "name": "from",
          "type": "address"
        },
        {
          "internalType": "address",
          "name": "to",
          "type": "address"
        },
        {
          "internalType": "uint256",
          "name": "tokenId",
          "type": "uint256"
        }
      ],
      "name": "transferFrom",
      "outputs": [],
      "stateMutability": "nonpayable",
      "type": "function"
    }
  ],
  "bytecode": "0x608060405260405180610160016040528061012f8152602001620061ed61012f91396008908051906020019062000038929190620024ed565b506040518061064001604052806040518060400160405280600681526020017f74656e6e6973000000000000000000000000000000000000000000000000000081525081526020016040518060400160405280600881526020017f7765616b6e65737300000000000000000000000000000000000000000000000081525081526020016040518060400160405280600881526020017f64656c697665727900000000000000000000000000000000000000000000000081525081526020016040518060400160405280600981526020017f6368696c64686f6f64000000000000000000000000000000000000000000000081525081526020016040518060400160405280600881526020017f656c657661746f7200000000000000000000000000000000000000000000000081525081526020016040518060400160405280600a81526020017f7065726d697373696f6e0000000000000000000000000000000000000000000081525081526020016040518060400160405280600681526020017f6566666f7274000000000000000000000000000000000000000000000000000081525081526020016040518060400160405280600381526020017f6c6162000000000000000000000000000000000000000000000000000000000081525081526020016040518060400160405280600881526020017f61756469656e636500000000000000000000000000000000000000000000000081525081526020016040518060400160405280600681526020017f706f7461746f000000000000000000000000000000000000000000000000000081525081526020016040518060400160405280600581526020017f646561746800000000000000000000000000000000000000000000000000000081525081526020016040518060400160405280600681526020017f6c6561646572000000000000000000000000000000000000000000000000000081525081526020016040518060400160405280600681526020017f656469746f72000000000000000000000000000000000000000000000000000081525081526020016040518060400160405280600681526020017f636f756e7479000000000000000000000000000000000000000000000000000081525081526020016040518060400160405280600481526020017f626565720000000000000000000000000000000000000000000000000000000081525081526020016040518060400160405280600681526020017f73696e676572000000000000000000000000000000000000000000000000000081525081526020016040518060400160405280600681526020017f73747564696f000000000000000000000000000000000000000000000000000081525081526020016040518060400160405280600a81526020017f696e766573746d656e740000000000000000000000000000000000000000000081525081526020016040518060400160405280600581526020017f726976657200000000000000000000000000000000000000000000000000000081525081526020016040518060400160405280600981526020017f6f7065726174696f6e000000000000000000000000000000000000000000000081525081526020016040518060400160405280600b81526020017f656e7669726f6e6d656e7400000000000000000000000000000000000000000081525081526020016040518060400160405280600781526020017f636f6e74726f6c0000000000000000000000000000000000000000000000000081525081526020016040518060400160405280600781526020017f6661696c7572650000000000000000000000000000000000000000000000000081525081526020016040518060400160405280600781526020017f686967687761790000000000000000000000000000000000000000000000000081525081526020016040518060400160405280600481526020017f696465610000000000000000000000000000000000000000000000000000000081525081526020016040518060400160405280600881526020017f656d706c6f79657200000000000000000000000000000000000000000000000081525081526020016040518060400160405280600881526020017f617267756d656e7400000000000000000000000000000000000000000000000081525081526020016040518060400160405280600881526020017f737472616e67657200000000000000000000000000000000000000000000000081525081526020016040518060400160405280600581526020017f756e696f6e00000000000000000000000000000000000000000000000000000081525081526020016040518060400160405280600b81526020017f636f6d7065746974696f6e00000000000000000000000000000000000000000081525081526020016040518060400160405280600681526020017f6f6666696365000000000000000000000000000000000000000000000000000081525081526020016040518060400160405280600881526020017f7175616e7469747900000000000000000000000000000000000000000000000081525081526020016040518060400160405280600581526020017f756e636c6500000000000000000000000000000000000000000000000000000081525081526020016040518060400160405280600681526020017f736572696573000000000000000000000000000000000000000000000000000081525081526020016040518060400160405280600881526020017f637573746f6d657200000000000000000000000000000000000000000000000081525081526020016040518060400160405280600881526020017f626972746864617900000000000000000000000000000000000000000000000081525081526020016040518060400160405280600681526020017f73797374656d000000000000000000000000000000000000000000000000000081525081526020016040518060400160405280600981526020017f636f6d6d6974746565000000000000000000000000000000000000000000000081525081526020016040518060400160405280600e81526020017f726573706f6e736962696c69747900000000000000000000000000000000000081525081526020016040518060400160405280600581526020017f6f776e657200000000000000000000000000000000000000000000000000000081525081526020016040518060400160405280600681526020017f657874656e74000000000000000000000000000000000000000000000000000081525081526020016040518060400160405280600781526020017f766172696574790000000000000000000000000000000000000000000000000081525081526020016040518060400160405280600681526020017f7765616c7468000000000000000000000000000000000000000000000000000081525081526020016040518060400160405280600c81526020017f646973747269627574696f6e000000000000000000000000000000000000000081525081526020016040518060400160405280600781526020017f6d616e616765720000000000000000000000000000000000000000000000000081525081526020016040518060400160405280600781526020017f737572676572790000000000000000000000000000000000000000000000000081525081526020016040518060400160405280600781526020017f77656464696e670000000000000000000000000000000000000000000000000081525081526020016040518060400160405280600781526020017f6d6573736167650000000000000000000000000000000000000000000000000081525081526020016040518060400160405280600a81526020017f7265666c656374696f6e0000000000000000000000000000000000000000000081525081526020016040518060400160405280600881526020017f6d6167617a696e65000000000000000000000000000000000000000000000000815250815250600990603262000bdb9291906200257e565b506040518061064001604052806040518060400160405280600681526020017f63656e747265000000000000000000000000000000000000000000000000000081525081526020016040518060400160405280600681526020017f70756e697368000000000000000000000000000000000000000000000000000081525081526020016040518060400160405280600781526020017f646973637573730000000000000000000000000000000000000000000000000081525081526020016040518060400160405280600481526020017f6772696e0000000000000000000000000000000000000000000000000000000081525081526020016040518060400160405280600781526020017f616476616e63650000000000000000000000000000000000000000000000000081525081526020016040518060400160405280600981526020017f696e74657266657265000000000000000000000000000000000000000000000081525081526020016040518060400160405280600781526020017f7377616c6c6f770000000000000000000000000000000000000000000000000081525081526020016040518060400160405280600781526020017f726563727569740000000000000000000000000000000000000000000000000081525081526020016040518060400160405280600781526020017f616371756972650000000000000000000000000000000000000000000000000081525081526020016040518060400160405280600a81526020017f617070726563696174650000000000000000000000000000000000000000000081525081526020016040518060400160405280600481526020017f66696c650000000000000000000000000000000000000000000000000000000081525081526020016040518060400160405280600581526020017f7365697a6500000000000000000000000000000000000000000000000000000081525081526020016040518060400160405280600581526020017f666f63757300000000000000000000000000000000000000000000000000000081525081526020016040518060400160405280600781526020017f737563636565640000000000000000000000000000000000000000000000000081525081526020016040518060400160405280600581526020017f726561636800000000000000000000000000000000000000000000000000000081525081526020016040518060400160405280600681526020017f61646d697265000000000000000000000000000000000000000000000000000081525081526020016040518060400160405280600781526020017f6469736c696b650000000000000000000000000000000000000000000000000081525081526020016040518060400160405280600681526020017f72656761696e000000000000000000000000000000000000000000000000000081525081526020016040518060400160405280600481526020017f746573740000000000000000000000000000000000000000000000000000000081525081526020016040518060400160405280600581526020017f6d6172636800000000000000000000000000000000000000000000000000000081525081526020016040518060400160405280600781526020017f726573746f72650000000000000000000000000000000000000000000000000081525081526020016040518060400160405280600581526020017f757073657400000000000000000000000000000000000000000000000000000081525081526020016040518060400160405280600781526020017f70726f746563740000000000000000000000000000000000000000000000000081525081526020016040518060400160405280600481526020017f6c6f73650000000000000000000000000000000000000000000000000000000081525081526020016040518060400160405280600781526020017f73706f6e736f720000000000000000000000000000000000000000000000000081525081526020016040518060400160405280600781526020017f636f6e64656d6e0000000000000000000000000000000000000000000000000081525081526020016040518060400160405280600981526020017f7265636f6d6d656e64000000000000000000000000000000000000000000000081525081526020016040518060400160405280600681526020017f626568617665000000000000000000000000000000000000000000000000000081525081526020016040518060400160405280600481526020017f62696e640000000000000000000000000000000000000000000000000000000081525081526020016040518060400160405280600881526020017f6576616c7561746500000000000000000000000000000000000000000000000081525081526020016040518060400160405280600781526020017f6578616d696e650000000000000000000000000000000000000000000000000081525081526020016040518060400160405280600581526020017f64616e636500000000000000000000000000000000000000000000000000000081525081526020016040518060400160405280600681526020017f646f75626c65000000000000000000000000000000000000000000000000000081525081526020016040518060400160405280600681526020017f68616e646c65000000000000000000000000000000000000000000000000000081525081526020016040518060400160405280600781526020017f646973706f73650000000000000000000000000000000000000000000000000081525081526020016040518060400160405280600781526020017f70726573756d650000000000000000000000000000000000000000000000000081525081526020016040518060400160405280600881526020017f646973616772656500000000000000000000000000000000000000000000000081525081526020016040518060400160405280600381526020017f616464000000000000000000000000000000000000000000000000000000000081525081526020016040518060400160405280600481526020017f6c6f6e670000000000000000000000000000000000000000000000000000000081525081526020016040518060400160405280600581526020017f747265617400000000000000000000000000000000000000000000000000000081525081526020016040518060400160405280600481526020017f776973680000000000000000000000000000000000000000000000000000000081525081526020016040518060400160405280600781526020017f657868696269740000000000000000000000000000000000000000000000000081525081526020016040518060400160405280600581526020017f737461726500000000000000000000000000000000000000000000000000000081525081526020016040518060400160405280600681526020017f6368616e6765000000000000000000000000000000000000000000000000000081525081526020016040518060400160405280600681526020017f617474616368000000000000000000000000000000000000000000000000000081525081526020016040518060400160405280600581526020017f617761697400000000000000000000000000000000000000000000000000000081525081526020016040518060400160405280600281526020017f646f00000000000000000000000000000000000000000000000000000000000081525081526020016040518060400160405280600581526020017f707269636500000000000000000000000000000000000000000000000000000081525081526020016040518060400160405280600881526020017f66756e6374696f6e00000000000000000000000000000000000000000000000081525081526020016040518060400160405280600581526020017f636c61696d000000000000000000000000000000000000000000000000000000815250815250600a9060326200177e9291906200257e565b506040518061064001604052806040518060400160405280600b81526020017f64657366696c616368657300000000000000000000000000000000000000000081525081526020016040518060400160405280600c81526020017f7a6172616e6461646f726173000000000000000000000000000000000000000081525081526020016040518060400160405280600981526020017f66727574657a63616e000000000000000000000000000000000000000000000081525081526020016040518060400160405280600a81526020017f636f6e73656e746972650000000000000000000000000000000000000000000081525081526020016040518060400160405280600881526020017f626167617269616e00000000000000000000000000000000000000000000000081525081526020016040518060400160405280600e81526020017f7269646963756c697a617269616e00000000000000000000000000000000000081525081526020016040518060400160405280600981526020017f68616d61636173656e000000000000000000000000000000000000000000000081525081526020016040518060400160405280600881526020017f736f62617263616e00000000000000000000000000000000000000000000000081525081526020016040518060400160405280600881526020017f64656c657a6e657300000000000000000000000000000000000000000000000081525081526020016040518060400160405280600b81526020017f666f73666f72657363656e00000000000000000000000000000000000000000081525081526020016040518060400160405280600781526020017f636972637569640000000000000000000000000000000000000000000000000081525081526020016040518060400160405280600a81526020017f636f6e6465736162616e0000000000000000000000000000000000000000000081525081526020016040518060400160405280600781526020017f706172746961730000000000000000000000000000000000000000000000000081525081526020016040518060400160405280600d81526020017f726570726573616c69616d6f730000000000000000000000000000000000000081525081526020016040518060400160405280600d81526020017f61686f726e61676173746569730000000000000000000000000000000000000081525081526020016040518060400160405280600981526020017f657374756469616461000000000000000000000000000000000000000000000081525081526020016040518060400160405280600b81526020017f616e746f7263686172656e00000000000000000000000000000000000000000081525081526020016040518060400160405280600a81526020017f636f6d706172746972610000000000000000000000000000000000000000000081525081526020016040518060400160405280600981526020017f6578706c6971756573000000000000000000000000000000000000000000000081525081526020016040518060400160405280600881526020017f7472617375656e6500000000000000000000000000000000000000000000000081525081526020016040518060400160405280600b81526020017f637572696f73656162616e00000000000000000000000000000000000000000081525081526020016040518060400160405280600a81526020017f6a7573746963696569730000000000000000000000000000000000000000000081525081526020016040518060400160405280600981526020017f70697175656172656e000000000000000000000000000000000000000000000081525081526020016040518060400160405280600781526020017f736f706c69646f0000000000000000000000000000000000000000000000000081525081526020016040518060400160405280600781526020017f726f73617365730000000000000000000000000000000000000000000000000081525081526020016040518060400160405280600f81526020017f646573626c616e7175696e61646173000000000000000000000000000000000081525081526020016040518060400160405280600e81526020017f686f73706974616c697a6173656e00000000000000000000000000000000000081525081526020016040518060400160405280600981526020017f70726f6c6570736973000000000000000000000000000000000000000000000081525081526020016040518060400160405280600b81526020017f696d706c616e746162617300000000000000000000000000000000000000000081525081526020016040518060400160405280600b81526020017f7265636f6461737465697300000000000000000000000000000000000000000081525081526020016040518060400160405280600f81526020017f696e73757272656363696f6e616261000000000000000000000000000000000081525081526020016040518060400160405280600881526020017f7a6f7272696e6f7300000000000000000000000000000000000000000000000081525081526020016040518060400160405280600c81526020017f656e63616e61737461726961000000000000000000000000000000000000000081525081526020016040518060400160405280600b81526020017f676f6e66616c6f6e65726f00000000000000000000000000000000000000000081525081526020016040518060400160405280600b81526020017f747269667572636172736500000000000000000000000000000000000000000081525081526020016040518060400160405280600d81526020017f6578706563746f7261726169730000000000000000000000000000000000000081525081526020016040518060400160405280600881526020017f61636f6c6368657300000000000000000000000000000000000000000000000081525081526020016040518060400160405280600a81526020017f6d6563617465656d6f730000000000000000000000000000000000000000000081525081526020016040518060400160405280600c81526020017f61686964616c67617269616e000000000000000000000000000000000000000081525081526020016040518060400160405280600781526020017f72656d657361640000000000000000000000000000000000000000000000000081525081526020016040518060400160405280600b81526020017f72656c616d69657261697300000000000000000000000000000000000000000081525081526020016040518060400160405280600e81526020017f656e636f726e75646172616d6f7300000000000000000000000000000000000081525081526020016040518060400160405280600681526020017f6d6174656173000000000000000000000000000000000000000000000000000081525081526020016040518060400160405280600d81526020017f73616e74616e64657265616e610000000000000000000000000000000000000081525081526020016040518060400160405280600981526020017f65787072696d697261000000000000000000000000000000000000000000000081525081526020016040518060400160405280600881526020017f646963746162616e00000000000000000000000000000000000000000000000081525081526020016040518060400160405280600d81526020017f666c616e7175656162616d6f730000000000000000000000000000000000000081525081526020016040518060400160405280600c81526020017f61726775656e64656162616e000000000000000000000000000000000000000081525081526020016040518060400160405280600a81526020017f61646563656e616461730000000000000000000000000000000000000000000081525081526020016040518060400160405280600b81526020017f616c696361746162616973000000000000000000000000000000000000000000815250815250600b906032620023219291906200257e565b503480156200232f57600080fd5b506040518060400160405280600981526020017f5371756172654e465400000000000000000000000000000000000000000000008152506040518060400160405280600681526020017f53515541524500000000000000000000000000000000000000000000000000008152508160009080519060200190620023b4929190620024ed565b508060019080519060200190620023cd929190620024ed565b5050506200241b6040518060400160405280601e81526020017f54686973206973206d79204e465420636f6e74726163742e20576f61682100008152506200242160201b6200120a1760201c565b6200279f565b620024c181604051602401620024389190620026b3565b6040516020818303038152906040527f41304fac000000000000000000000000000000000000000000000000000000007bffffffffffffffffffffffffffffffffffffffffffffffffffffffff19166020820180517bffffffffffffffffffffffffffffffffffffffffffffffffffffffff8381831617835250505050620024c460201b60201c565b50565b60008151905060006a636f6e736f6c652e6c6f679050602083016000808483855afa5050505050565b828054620024fb9062002729565b90600052602060002090601f0160209004810192826200251f57600085556200256b565b82601f106200253a57805160ff19168380011785556200256b565b828001600101855582156200256b579182015b828111156200256a5782518255916020019190600101906200254d565b5b5090506200257a9190620025e5565b5090565b828054828255906000526020600020908101928215620025d2579160200282015b82811115620025d1578251829080519060200190620025c0929190620024ed565b50916020019190600101906200259f565b5b509050620025e1919062002604565b5090565b5b8082111562002600576000816000905550600101620025e6565b5090565b5b808211156200262857600081816200261e91906200262c565b5060010162002605565b5090565b5080546200263a9062002729565b6000825580601f106200264e57506200266f565b601f0160209004906000526020600020908101906200266e9190620025e5565b5b50565b60006200267f82620026d7565b6200268b8185620026e2565b93506200269d818560208601620026f3565b620026a8816200278e565b840191505092915050565b60006020820190508181036000830152620026cf818462002672565b905092915050565b600081519050919050565b600082825260208201905092915050565b60005b8381101562002713578082015181840152602081019050620026f6565b8381111562002723576000848401525b50505050565b600060028204905060018216806200274257607f821691505b602082108114156200275957620027586200275f565b5b50919050565b7f4e487b7100000000000000000000000000000000000000000000000000000000600052602260045260246000fd5b6000601f19601f8301169050919050565b613a3e80620027af6000396000f3fe608060405234801561001057600080fd5b506004361061010b5760003560e01c806370a08231116100a2578063b88d4fde11610071578063b88d4fde146102dc578063c575757a146102f8578063c87b56dd14610328578063de9d132f14610358578063e985e9c5146103625761010b565b806370a082311461024257806395d89b4114610272578063a22cb46514610290578063b187301f146102ac5761010b565b806323b872dd116100de57806323b872dd146101aa5780632de38d68146101c657806342842e0e146101f65780636352211e146102125761010b565b806301ffc9a71461011057806306fdde0314610140578063081812fc1461015e578063095ea7b31461018e575b600080fd5b61012a6004803603810190610125919061260a565b610392565b60405161013791906132b4565b60405180910390f35b610148610474565b60405161015591906132cf565b60405180910390f35b6101786004803603810190610173919061265c565b610506565b6040516101859190613224565b60405180910390f35b6101a860048036038101906101a391906125ce565b61058b565b005b6101c460048036038101906101bf91906124c8565b6106a3565b005b6101e060048036038101906101db919061265c565b610703565b6040516101ed91906132cf565b60405180910390f35b610210600480360381019061020b91906124c8565b610821565b005b61022c6004803603810190610227919061265c565b610841565b6040516102399190613224565b60405180910390f35b61025c60048036038101906102579190612463565b6108f3565b604051610269919061352f565b60405180910390f35b61027a6109ab565b60405161028791906132cf565b60405180910390f35b6102aa60048036038101906102a59190612592565b610a3d565b005b6102c660048036038101906102c1919061265c565b610a53565b6040516102d391906132cf565b60405180910390f35b6102f660048036038101906102f19190612517565b610b71565b005b610312600480360381019061030d919061265c565b610bd3565b60405161031f91906132cf565b60405180910390f35b610342600480360381019061033d919061265c565b610cf1565b60405161034f91906132cf565b60405180910390f35b610360610e43565b005b61037c6004803603810190610377919061248c565b611176565b60405161038991906132b4565b60405180910390f35b60007f80ac58cd000000000000000000000000000000000000000000000000000000007bffffffffffffffffffffffffffffffffffffffffffffffffffffffff1916827bffffffffffffffffffffffffffffffffffffffffffffffffffffffff1916148061045d57507f5b5e139f000000000000000000000000000000000000000000000000000000007bffffffffffffffffffffffffffffffffffffffffffffffffffffffff1916827bffffffffffffffffffffffffffffffffffffffffffffffffffffffff1916145b8061046d575061046c826112a3565b5b9050919050565b606060008054610483906137ce565b80601f01602080910402602001604051908101604052809291908181526020018280546104af906137ce565b80156104fc5780601f106104d1576101008083540402835291602001916104fc565b820191906000526020600020905b8154815290600101906020018083116104df57829003601f168201915b5050505050905090565b60006105118261130d565b610550576040517f08c379a00000000000000000000000000000000000000000000000000000000081526004016105479061348f565b60405180910390fd5b6004600083815260200190815260200160002060009054906101000a900473ffffffffffffffffffffffffffffffffffffffff169050919050565b600061059682610841565b90508073ffffffffffffffffffffffffffffffffffffffff168373ffffffffffffffffffffffffffffffffffffffff161415610607576040517f08c379a00000000000000000000000000000000000000000000000000000000081526004016105fe906134ef565b60405180910390fd5b8073ffffffffffffffffffffffffffffffffffffffff16610626611379565b73ffffffffffffffffffffffffffffffffffffffff16148061065557506106548161064f611379565b611176565b5b610694576040517f08c379a000000000000000000000000000000000000000000000000000000000815260040161068b906133cf565b60405180910390fd5b61069e8383611381565b505050565b6106b46106ae611379565b8261143a565b6106f3576040517f08c379a00000000000000000000000000000000000000000000000000000000081526004016106ea9061350f565b60405180910390fd5b6106fe838383611518565b505050565b6060600061073761071384611774565b60405160200161072391906131e0565b604051602081830303815290604052611921565b90506009805490508161074a9190613849565b905060098181548110610786577f4e487b7100000000000000000000000000000000000000000000000000000000600052603260045260246000fd5b90600052602060002001805461079b906137ce565b80601f01602080910402602001604051908101604052809291908181526020018280546107c7906137ce565b80156108145780601f106107e957610100808354040283529160200191610814565b820191906000526020600020905b8154815290600101906020018083116107f757829003601f168201915b5050505050915050919050565b61083c83838360405180602001604052806000815250610b71565b505050565b6000806002600084815260200190815260200160002060009054906101000a900473ffffffffffffffffffffffffffffffffffffffff169050600073ffffffffffffffffffffffffffffffffffffffff168173ffffffffffffffffffffffffffffffffffffffff1614156108ea576040517f08c379a00000000000000000000000000000000000000000000000000000000081526004016108e19061340f565b60405180910390fd5b80915050919050565b60008073ffffffffffffffffffffffffffffffffffffffff168273ffffffffffffffffffffffffffffffffffffffff161415610964576040517f08c379a000000000000000000000000000000000000000000000000000000000815260040161095b906133ef565b60405180910390fd5b600360008373ffffffffffffffffffffffffffffffffffffffff1673ffffffffffffffffffffffffffffffffffffffff168152602001908152602001600020549050919050565b6060600180546109ba906137ce565b80601f01602080910402602001604051908101604052809291908181526020018280546109e6906137ce565b8015610a335780601f10610a0857610100808354040283529160200191610a33565b820191906000526020600020905b815481529060010190602001808311610a1657829003601f168201915b5050505050905090565b610a4f610a48611379565b8383611954565b5050565b60606000610a87610a6384611774565b604051602001610a739190613179565b604051602081830303815290604052611921565b9050600a8054905081610a9a9190613849565b9050600a8181548110610ad6577f4e487b7100000000000000000000000000000000000000000000000000000000600052603260045260246000fd5b906000526020600020018054610aeb906137ce565b80601f0160208091040260200160405190810160405280929190818152602001828054610b17906137ce565b8015610b645780601f10610b3957610100808354040283529160200191610b64565b820191906000526020600020905b815481529060010190602001808311610b4757829003601f168201915b5050505050915050919050565b610b82610b7c611379565b8361143a565b610bc1576040517f08c379a0000000000000000000000000000000000000000000000000000000008152600401610bb89061350f565b60405180910390fd5b610bcd84848484611ac1565b50505050565b60606000610c07610be384611774565b604051602001610bf39190613157565b604051602081830303815290604052611921565b9050600b8054905081610c1a9190613849565b9050600b8181548110610c56577f4e487b7100000000000000000000000000000000000000000000000000000000600052603260045260246000fd5b906000526020600020018054610c6b906137ce565b80601f0160208091040260200160405190810160405280929190818152602001828054610c97906137ce565b8015610ce45780601f10610cb957610100808354040283529160200191610ce4565b820191906000526020600020905b815481529060010190602001808311610cc757829003601f168201915b5050505050915050919050565b6060610cfc8261130d565b610d3b576040517f08c379a0000000000000000000000000000000000000000000000000000000008152600401610d329061346f565b60405180910390fd5b6000600660008481526020019081526020016000208054610d5b906137ce565b80601f0160208091040260200160405190810160405280929190818152602001828054610d87906137ce565b8015610dd45780601f10610da957610100808354040283529160200191610dd4565b820191906000526020600020905b815481529060010190602001808311610db757829003601f168201915b505050505090506000610de5611b1d565b9050600081511415610dfb578192505050610e3e565b600082511115610e30578082604051602001610e189291906130b1565b60405160208183030381529060405292505050610e3e565b610e3984611b34565b925050505b919050565b6000610e4f6007611bdb565b90506000610e5c82610703565b90506000610e6983610a53565b90506000610e7684610bd3565b90506000838383604051602001610e8f939291906130d5565b60405160208183030381529060405290506000600882604051602001610eb6929190613106565b6040516020818303038152906040529050610f056040518060400160405280601581526020017f0a2d2d2d2d2d2d2d2d2d2d2d2d2d2d2d2d2d2d2d2d000000000000000000000081525061120a565b610f0e8161120a565b610f4c6040518060400160405280601581526020017f2d2d2d2d2d2d2d2d2d2d2d2d2d2d2d2d2d2d2d2d0a000000000000000000000081525061120a565b6000610f8083610f5b84611be9565b604051602001610f6c92919061319b565b604051602081830303815290604052611be9565b9050600081604051602001610f959190613202565b6040516020818303038152906040529050610fe46040518060400160405280601581526020017f0a2d2d2d2d2d2d2d2d2d2d2d2d2d2d2d2d2d2d2d2d000000000000000000000081525061120a565b610fed8161120a565b61102b6040518060400160405280601581526020017f2d2d2d2d2d2d2d2d2d2d2d2d2d2d2d2d2d2d2d2d0a000000000000000000000081525061120a565b6110696040518060400160405280601581526020017f0a2d2d2d2d2d2d2d2d2d2d2d2d2d2d2d2d2d2d2d2d000000000000000000000081525061120a565b6110918160405160200161107d9190613135565b60405160208183030381529060405261120a565b6110cf6040518060400160405280601581526020017f2d2d2d2d2d2d2d2d2d2d2d2d2d2d2d2d2d2d2d2d0a000000000000000000000081525061120a565b6110d93389611da7565b6110e38882611dc5565b6111066040518060600160405280602581526020016139a4602591398933611e39565b6111106007611ed8565b6111336040518060600160405280602581526020016139a4602591398933611e39565b7febb98688741ffa4c7589bf325de30cf7becb63de567842e1ccdb6cb949fdc82c338960405161116492919061328b565b60405180910390a15050505050505050565b6000600560008473ffffffffffffffffffffffffffffffffffffffff1673ffffffffffffffffffffffffffffffffffffffff16815260200190815260200160002060008373ffffffffffffffffffffffffffffffffffffffff1673ffffffffffffffffffffffffffffffffffffffff16815260200190815260200160002060009054906101000a900460ff16905092915050565b6112a08160405160240161121e91906132cf565b6040516020818303038152906040527f41304fac000000000000000000000000000000000000000000000000000000007bffffffffffffffffffffffffffffffffffffffffffffffffffffffff19166020820180517bffffffffffffffffffffffffffffffffffffffffffffffffffffffff8381831617835250505050611eee565b50565b60007f01ffc9a7000000000000000000000000000000000000000000000000000000007bffffffffffffffffffffffffffffffffffffffffffffffffffffffff1916827bffffffffffffffffffffffffffffffffffffffffffffffffffffffff1916149050919050565b60008073ffffffffffffffffffffffffffffffffffffffff166002600084815260200190815260200160002060009054906101000a900473ffffffffffffffffffffffffffffffffffffffff1673ffffffffffffffffffffffffffffffffffffffff1614159050919050565b600033905090565b816004600083815260200190815260200160002060006101000a81548173ffffffffffffffffffffffffffffffffffffffff021916908373ffffffffffffffffffffffffffffffffffffffff160217905550808273ffffffffffffffffffffffffffffffffffffffff166113f483610841565b73ffffffffffffffffffffffffffffffffffffffff167f8c5be1e5ebec7d5bd14f71427d1e84f3dd0314c0f7b2291e5b200ac8c7c3b92560405160405180910390a45050565b60006114458261130d565b611484576040517f08c379a000000000000000000000000000000000000000000000000000000000815260040161147b906133af565b60405180910390fd5b600061148f83610841565b90508073ffffffffffffffffffffffffffffffffffffffff168473ffffffffffffffffffffffffffffffffffffffff1614806114fe57508373ffffffffffffffffffffffffffffffffffffffff166114e684610506565b73ffffffffffffffffffffffffffffffffffffffff16145b8061150f575061150e8185611176565b5b91505092915050565b8273ffffffffffffffffffffffffffffffffffffffff1661153882610841565b73ffffffffffffffffffffffffffffffffffffffff161461158e576040517f08c379a0000000000000000000000000000000000000000000000000000000008152600401611585906134af565b60405180910390fd5b600073ffffffffffffffffffffffffffffffffffffffff168273ffffffffffffffffffffffffffffffffffffffff1614156115fe576040517f08c379a00000000000000000000000000000000000000000000000000000000081526004016115f59061336f565b60405180910390fd5b611609838383611f17565b611614600082611381565b6001600360008573ffffffffffffffffffffffffffffffffffffffff1673ffffffffffffffffffffffffffffffffffffffff168152602001908152602001600020600082825461166491906136e4565b925050819055506001600360008473ffffffffffffffffffffffffffffffffffffffff1673ffffffffffffffffffffffffffffffffffffffff16815260200190815260200160002060008282546116bb9190613603565b92505081905550816002600083815260200190815260200160002060006101000a81548173ffffffffffffffffffffffffffffffffffffffff021916908373ffffffffffffffffffffffffffffffffffffffff160217905550808273ffffffffffffffffffffffffffffffffffffffff168473ffffffffffffffffffffffffffffffffffffffff167fddf252ad1be2c89b69c2b068fc378daa952ba7f163c4a11628f55a4df523b3ef60405160405180910390a4505050565b606060008214156117bc576040518060400160405280600181526020017f3000000000000000000000000000000000000000000000000000000000000000815250905061191c565b600082905060005b600082146117ee5780806117d790613800565b915050600a826117e79190613659565b91506117c4565b60008167ffffffffffffffff811115611830577f4e487b7100000000000000000000000000000000000000000000000000000000600052604160045260246000fd5b6040519080825280601f01601f1916602001820160405280156118625781602001600182028036833780820191505090505b5090505b600085146119155760018261187b91906136e4565b9150600a8561188a9190613849565b60306118969190613603565b60f81b8183815181106118d2577f4e487b7100000000000000000000000000000000000000000000000000000000600052603260045260246000fd5b60200101907effffffffffffffffffffffffffffffffffffffffffffffffffffffffffffff1916908160001a905350600a8561190e9190613659565b9450611866565b8093505050505b919050565b600081604051602001611934919061309a565b6040516020818303038152906040528051906020012060001c9050919050565b8173ffffffffffffffffffffffffffffffffffffffff168373ffffffffffffffffffffffffffffffffffffffff1614156119c3576040517f08c379a00000000000000000000000000000000000000000000000000000000081526004016119ba9061338f565b60405180910390fd5b80600560008573ffffffffffffffffffffffffffffffffffffffff1673ffffffffffffffffffffffffffffffffffffffff16815260200190815260200160002060008473ffffffffffffffffffffffffffffffffffffffff1673ffffffffffffffffffffffffffffffffffffffff16815260200190815260200160002060006101000a81548160ff0219169083151502179055508173ffffffffffffffffffffffffffffffffffffffff168373ffffffffffffffffffffffffffffffffffffffff167f17307eab39ab6107e8899845ad3d59bd9653f200f220920489ca2b5937696c3183604051611ab491906132b4565b60405180910390a3505050565b611acc848484611518565b611ad884848484611f1c565b611b17576040517f08c379a0000000000000000000000000000000000000000000000000000000008152600401611b0e9061332f565b60405180910390fd5b50505050565b606060405180602001604052806000815250905090565b6060611b3f8261130d565b611b7e576040517f08c379a0000000000000000000000000000000000000000000000000000000008152600401611b75906134cf565b60405180910390fd5b6000611b88611b1d565b90506000815111611ba85760405180602001604052806000815250611bd3565b80611bb284611774565b604051602001611bc39291906130b1565b6040516020818303038152906040525b915050919050565b600081600001549050919050565b60606000825190506000811415611c125760405180602001604052806000815250915050611da2565b60006003600283611c239190613603565b611c2d9190613659565b6004611c39919061368a565b90506000602082611c4a9190613603565b67ffffffffffffffff811115611c89577f4e487b7100000000000000000000000000000000000000000000000000000000600052604160045260246000fd5b6040519080825280601f01601f191660200182016040528015611cbb5781602001600182028036833780820191505090505b50905060006040518060600160405280604081526020016139c9604091399050600181016020830160005b86811015611d5f5760038101905062ffffff818a015116603f8160121c168401518060081b905060ff603f83600c1c1686015116810190508060081b905060ff603f8360061c1686015116810190508060081b905060ff603f831686015116810190508060e01b90508084526004840193505050611ce6565b506003860660018114611d795760028114611d8957611d94565b613d3d60f01b6002830352611d94565b603d60f81b60018303525b508484525050819450505050505b919050565b611dc18282604051806020016040528060008152506120b3565b5050565b611dce8261130d565b611e0d576040517f08c379a0000000000000000000000000000000000000000000000000000000008152600401611e049061342f565b60405180910390fd5b80600660008481526020019081526020016000209080519060200190611e349291906122ef565b505050565b611ed3838383604051602401611e51939291906132f1565b6040516020818303038152906040527fe3849f79000000000000000000000000000000000000000000000000000000007bffffffffffffffffffffffffffffffffffffffffffffffffffffffff19166020820180517bffffffffffffffffffffffffffffffffffffffffffffffffffffffff8381831617835250505050611eee565b505050565b6001816000016000828254019250508190555050565b60008151905060006a636f6e736f6c652e6c6f679050602083016000808483855afa5050505050565b505050565b6000611f3d8473ffffffffffffffffffffffffffffffffffffffff1661210e565b156120a6578373ffffffffffffffffffffffffffffffffffffffff1663150b7a02611f66611379565b8786866040518563ffffffff1660e01b8152600401611f88949392919061323f565b602060405180830381600087803b158015611fa257600080fd5b505af1925050508015611fd357506040513d601f19601f82011682018060405250810190611fd09190612633565b60015b612056573d8060008114612003576040519150601f19603f3d011682016040523d82523d6000602084013e612008565b606091505b5060008151141561204e576040517f08c379a00000000000000000000000000000000000000000000000000000000081526004016120459061332f565b60405180910390fd5b805181602001fd5b63150b7a0260e01b7bffffffffffffffffffffffffffffffffffffffffffffffffffffffff1916817bffffffffffffffffffffffffffffffffffffffffffffffffffffffff1916149150506120ab565b600190505b949350505050565b6120bd8383612121565b6120ca6000848484611f1c565b612109576040517f08c379a00000000000000000000000000000000000000000000000000000000081526004016121009061332f565b60405180910390fd5b505050565b600080823b905060008111915050919050565b600073ffffffffffffffffffffffffffffffffffffffff168273ffffffffffffffffffffffffffffffffffffffff161415612191576040517f08c379a00000000000000000000000000000000000000000000000000000000081526004016121889061344f565b60405180910390fd5b61219a8161130d565b156121da576040517f08c379a00000000000000000000000000000000000000000000000000000000081526004016121d19061334f565b60405180910390fd5b6121e660008383611f17565b6001600360008473ffffffffffffffffffffffffffffffffffffffff1673ffffffffffffffffffffffffffffffffffffffff16815260200190815260200160002060008282546122369190613603565b92505081905550816002600083815260200190815260200160002060006101000a81548173ffffffffffffffffffffffffffffffffffffffff021916908373ffffffffffffffffffffffffffffffffffffffff160217905550808273ffffffffffffffffffffffffffffffffffffffff16600073ffffffffffffffffffffffffffffffffffffffff167fddf252ad1be2c89b69c2b068fc378daa952ba7f163c4a11628f55a4df523b3ef60405160405180910390a45050565b8280546122fb906137ce565b90600052602060002090601f01602090048101928261231d5760008555612364565b82601f1061233657805160ff1916838001178555612364565b82800160010185558215612364579182015b82811115612363578251825591602001919060010190612348565b5b5090506123719190612375565b5090565b5b8082111561238e576000816000905550600101612376565b5090565b60006123a56123a08461357b565b61354a565b9050828152602081018484840111156123bd57600080fd5b6123c884828561378c565b509392505050565b6000813590506123df81613947565b92915050565b6000813590506123f48161395e565b92915050565b60008135905061240981613975565b92915050565b60008151905061241e81613975565b92915050565b600082601f83011261243557600080fd5b8135612445848260208601612392565b91505092915050565b60008135905061245d8161398c565b92915050565b60006020828403121561247557600080fd5b6000612483848285016123d0565b91505092915050565b6000806040838503121561249f57600080fd5b60006124ad858286016123d0565b92505060206124be858286016123d0565b9150509250929050565b6000806000606084860312156124dd57600080fd5b60006124eb868287016123d0565b93505060206124fc868287016123d0565b925050604061250d8682870161244e565b9150509250925092565b6000806000806080858703121561252d57600080fd5b600061253b878288016123d0565b945050602061254c878288016123d0565b935050604061255d8782880161244e565b925050606085013567ffffffffffffffff81111561257a57600080fd5b61258687828801612424565b91505092959194509250565b600080604083850312156125a557600080fd5b60006125b3858286016123d0565b92505060206125c4858286016123e5565b9150509250929050565b600080604083850312156125e157600080fd5b60006125ef858286016123d0565b92505060206126008582860161244e565b9150509250929050565b60006020828403121561261c57600080fd5b600061262a848285016123fa565b91505092915050565b60006020828403121561264557600080fd5b60006126538482850161240f565b91505092915050565b60006020828403121561266e57600080fd5b600061267c8482850161244e565b91505092915050565b61268e81613718565b82525050565b61269d8161372a565b82525050565b60006126ae826135c0565b6126b881856135d6565b93506126c881856020860161379b565b6126d181613936565b840191505092915050565b60006126e7826135cb565b6126f181856135e7565b935061270181856020860161379b565b61270a81613936565b840191505092915050565b6000612720826135cb565b61272a81856135f8565b935061273a81856020860161379b565b80840191505092915050565b60008154612753816137ce565b61275d81866135f8565b945060018216600081146127785760018114612789576127bc565b60ff198316865281860193506127bc565b612792856135ab565b60005b838110156127b457815481890152600182019150602081019050612795565b838801955050505b50505092915050565b60006127d26025836135f8565b91507f68747470733a2f2f6e6674707265766965772e30786465762e636f6465732f3f60008301527f636f64653d0000000000000000000000000000000000000000000000000000006020830152602582019050919050565b60006128386032836135e7565b91507f4552433732313a207472616e7366657220746f206e6f6e20455243373231526560008301527f63656976657220696d706c656d656e74657200000000000000000000000000006020830152604082019050919050565b600061289e601c836135e7565b91507f4552433732313a20746f6b656e20616c7265616479206d696e746564000000006000830152602082019050919050565b60006128de600a836135f8565b91507f54484952445f574f5244000000000000000000000000000000000000000000006000830152600a82019050919050565b600061291e6024836135e7565b91507f4552433732313a207472616e7366657220746f20746865207a65726f2061646460008301527f72657373000000000000000000000000000000000000000000000000000000006020830152604082019050919050565b60006129846019836135e7565b91507f4552433732313a20617070726f766520746f2063616c6c6572000000000000006000830152602082019050919050565b60006129c46063836135f8565b91507f222c20226465736372697074696f6e223a20224120686967686c79206163636c60008301527f61696d656420636f6c6c656374696f6e206f6620737175617265732e222c202260208301527f696d616765223a2022646174613a696d6167652f7376672b786d6c3b6261736560408301527f36342c00000000000000000000000000000000000000000000000000000000006060830152606382019050919050565b6000612a76600b836135f8565b91507f5345434f4e445f574f52440000000000000000000000000000000000000000006000830152600b82019050919050565b6000612ab6602c836135e7565b91507f4552433732313a206f70657261746f7220717565727920666f72206e6f6e657860008301527f697374656e7420746f6b656e00000000000000000000000000000000000000006020830152604082019050919050565b6000612b1c600d836135f8565b91507f3c2f746578743e3c2f7376673e000000000000000000000000000000000000006000830152600d82019050919050565b6000612b5c6038836135e7565b91507f4552433732313a20617070726f76652063616c6c6572206973206e6f74206f7760008301527f6e6572206e6f7220617070726f76656420666f7220616c6c00000000000000006020830152604082019050919050565b6000612bc2602a836135e7565b91507f4552433732313a2062616c616e636520717565727920666f7220746865207a6560008301527f726f2061646472657373000000000000000000000000000000000000000000006020830152604082019050919050565b6000612c286029836135e7565b91507f4552433732313a206f776e657220717565727920666f72206e6f6e657869737460008301527f656e7420746f6b656e00000000000000000000000000000000000000000000006020830152604082019050919050565b6000612c8e602e836135e7565b91507f45524337323155524953746f726167653a2055524920736574206f66206e6f6e60008301527f6578697374656e7420746f6b656e0000000000000000000000000000000000006020830152604082019050919050565b6000612cf46002836135f8565b91507f227d0000000000000000000000000000000000000000000000000000000000006000830152600282019050919050565b6000612d346020836135e7565b91507f4552433732313a206d696e7420746f20746865207a65726f20616464726573736000830152602082019050919050565b6000612d746031836135e7565b91507f45524337323155524953746f726167653a2055524920717565727920666f722060008301527f6e6f6e6578697374656e7420746f6b656e0000000000000000000000000000006020830152604082019050919050565b6000612dda602c836135e7565b91507f4552433732313a20617070726f76656420717565727920666f72206e6f6e657860008301527f697374656e7420746f6b656e00000000000000000000000000000000000000006020830152604082019050919050565b6000612e406029836135e7565b91507f4552433732313a207472616e73666572206f6620746f6b656e2074686174206960008301527f73206e6f74206f776e00000000000000000000000000000000000000000000006020830152604082019050919050565b6000612ea6602f836135e7565b91507f4552433732314d657461646174613a2055524920717565727920666f72206e6f60008301527f6e6578697374656e7420746f6b656e00000000000000000000000000000000006020830152604082019050919050565b6000612f0c600a836135f8565b91507f7b226e616d65223a2022000000000000000000000000000000000000000000006000830152600a82019050919050565b6000612f4c6021836135e7565b91507f4552433732313a20617070726f76616c20746f2063757272656e74206f776e6560008301527f72000000000000000000000000000000000000000000000000000000000000006020830152604082019050919050565b6000612fb2600a836135f8565b91507f46495253545f574f5244000000000000000000000000000000000000000000006000830152600a82019050919050565b6000612ff2601d836135f8565b91507f646174613a6170706c69636174696f6e2f6a736f6e3b6261736536342c0000006000830152601d82019050919050565b60006130326031836135e7565b91507f4552433732313a207472616e736665722063616c6c6572206973206e6f74206f60008301527f776e6572206e6f7220617070726f7665640000000000000000000000000000006020830152604082019050919050565b61309481613782565b82525050565b60006130a68284612715565b915081905092915050565b60006130bd8285612715565b91506130c98284612715565b91508190509392505050565b60006130e18286612715565b91506130ed8285612715565b91506130f98284612715565b9150819050949350505050565b60006131128285612746565b915061311e8284612715565b915061312982612b0f565b91508190509392505050565b6000613140826127c5565b915061314c8284612715565b915081905092915050565b6000613162826128d1565b915061316e8284612715565b915081905092915050565b600061318482612a69565b91506131908284612715565b915081905092915050565b60006131a682612eff565b91506131b28285612715565b91506131bd826129b7565b91506131c98284612715565b91506131d482612ce7565b91508190509392505050565b60006131eb82612fa5565b91506131f78284612715565b915081905092915050565b600061320d82612fe5565b91506132198284612715565b915081905092915050565b60006020820190506132396000830184612685565b92915050565b60006080820190506132546000830187612685565b6132616020830186612685565b61326e604083018561308b565b818103606083015261328081846126a3565b905095945050505050565b60006040820190506132a06000830185612685565b6132ad602083018461308b565b9392505050565b60006020820190506132c96000830184612694565b92915050565b600060208201905081810360008301526132e981846126dc565b905092915050565b6000606082019050818103600083015261330b81866126dc565b905061331a602083018561308b565b6133276040830184612685565b949350505050565b600060208201905081810360008301526133488161282b565b9050919050565b6000602082019050818103600083015261336881612891565b9050919050565b6000602082019050818103600083015261338881612911565b9050919050565b600060208201905081810360008301526133a881612977565b9050919050565b600060208201905081810360008301526133c881612aa9565b9050919050565b600060208201905081810360008301526133e881612b4f565b9050919050565b6000602082019050818103600083015261340881612bb5565b9050919050565b6000602082019050818103600083015261342881612c1b565b9050919050565b6000602082019050818103600083015261344881612c81565b9050919050565b6000602082019050818103600083015261346881612d27565b9050919050565b6000602082019050818103600083015261348881612d67565b9050919050565b600060208201905081810360008301526134a881612dcd565b9050919050565b600060208201905081810360008301526134c881612e33565b9050919050565b600060208201905081810360008301526134e881612e99565b9050919050565b6000602082019050818103600083015261350881612f3f565b9050919050565b6000602082019050818103600083015261352881613025565b9050919050565b6000602082019050613544600083018461308b565b92915050565b6000604051905081810181811067ffffffffffffffff8211171561357157613570613907565b5b8060405250919050565b600067ffffffffffffffff82111561359657613595613907565b5b601f19601f8301169050602081019050919050565b60008190508160005260206000209050919050565b600081519050919050565b600081519050919050565b600082825260208201905092915050565b600082825260208201905092915050565b600081905092915050565b600061360e82613782565b915061361983613782565b9250827fffffffffffffffffffffffffffffffffffffffffffffffffffffffffffffffff0382111561364e5761364d61387a565b5b828201905092915050565b600061366482613782565b915061366f83613782565b92508261367f5761367e6138a9565b5b828204905092915050565b600061369582613782565b91506136a083613782565b9250817fffffffffffffffffffffffffffffffffffffffffffffffffffffffffffffffff04831182151516156136d9576136d861387a565b5b828202905092915050565b60006136ef82613782565b91506136fa83613782565b92508282101561370d5761370c61387a565b5b828203905092915050565b600061372382613762565b9050919050565b60008115159050919050565b60007fffffffff0000000000000000000000000000000000000000000000000000000082169050919050565b600073ffffffffffffffffffffffffffffffffffffffff82169050919050565b6000819050919050565b82818337600083830152505050565b60005b838110156137b957808201518184015260208101905061379e565b838111156137c8576000848401525b50505050565b600060028204905060018216806137e657607f821691505b602082108114156137fa576137f96138d8565b5b50919050565b600061380b82613782565b91507fffffffffffffffffffffffffffffffffffffffffffffffffffffffffffffffff82141561383e5761383d61387a565b5b600182019050919050565b600061385482613782565b915061385f83613782565b92508261386f5761386e6138a9565b5b828206905092915050565b7f4e487b7100000000000000000000000000000000000000000000000000000000600052601160045260246000fd5b7f4e487b7100000000000000000000000000000000000000000000000000000000600052601260045260246000fd5b7f4e487b7100000000000000000000000000000000000000000000000000000000600052602260045260246000fd5b7f4e487b7100000000000000000000000000000000000000000000000000000000600052604160045260246000fd5b6000601f19601f8301169050919050565b61395081613718565b811461395b57600080fd5b50565b6139678161372a565b811461397257600080fd5b50565b61397e81613736565b811461398957600080fd5b50565b61399581613782565b81146139a057600080fd5b5056fe416e204e465420772f20494420257320686173206265656e206d696e74656420746f2025734142434445464748494a4b4c4d4e4f505152535455565758595a6162636465666768696a6b6c6d6e6f707172737475767778797a303132333435363738392b2fa264697066735822122005dbd01523685b985f658c646a556903508eaddd60f5b3d4994c3e3116fd904464736f6c634300080000333c73766720786d6c6e733d27687474703a2f2f7777772e77332e6f72672f323030302f73766727207072657365727665417370656374526174696f3d27784d696e594d696e206d656574272076696577426f783d273020302033353020333530273e3c7374796c653e2e62617365207b2066696c6c3a2077686974653b20666f6e742d66616d696c793a2073657269663b20666f6e742d73697a653a20323470783b207d3c2f7374796c653e3c726563742077696474683d273130302527206865696768743d2731303025272066696c6c3d27626c61636b27202f3e3c7465787420783d273530252720793d273530252720636c6173733d27626173652720646f6d696e616e742d626173656c696e653d276d6964646c652720746578742d616e63686f723d276d6964646c65273e",
  "linkReferences": {},
  "deployedLinkReferences": {}
}