{
  "_format": "hh-sol-artifact-1",
  "contractName": "EpicNFT",
  "sourceName": "contracts/EpicNFT.sol",
  "abi": [
    {
      "inputs": [],
      "stateMutability": "nonpayable",
      "type": "constructor"
    },
    {
      "anonymous": false,
      "inputs": [
        {
          "indexed": true,
          "internalType": "address",
          "name": "owner",
          "type": "address"
        },
        {
          "indexed": true,
          "internalType": "address",
          "name": "approved",
          "type": "address"
        },
        {
          "indexed": true,
          "internalType": "uint256",
          "name": "tokenId",
          "type": "uint256"
        }
      ],
      "name": "Approval",
      "type": "event"
    },
    {
      "anonymous": false,
      "inputs": [
        {
          "indexed": true,
          "internalType": "address",
          "name": "owner",
          "type": "address"
        },
        {
          "indexed": true,
          "internalType": "address",
          "name": "operator",
          "type": "address"
        },
        {
          "indexed": false,
          "internalType": "bool",
          "name": "approved",
          "type": "bool"
        }
      ],
      "name": "ApprovalForAll",
      "type": "event"
    },
    {
      "anonymous": false,
      "inputs": [
        {
          "indexed": false,
          "internalType": "address",
          "name": "sender",
          "type": "address"
        },
        {
          "indexed": false,
          "internalType": "uint256",
          "name": "tokenId",
          "type": "uint256"
        }
      ],
      "name": "NewEpicNFTMinted",
      "type": "event"
    },
    {
      "anonymous": false,
      "inputs": [
        {
          "indexed": true,
          "internalType": "address",
          "name": "from",
          "type": "address"
        },
        {
          "indexed": true,
          "internalType": "address",
          "name": "to",
          "type": "address"
        },
        {
          "indexed": true,
          "internalType": "uint256",
          "name": "tokenId",
          "type": "uint256"
        }
      ],
      "name": "Transfer",
      "type": "event"
    },
    {
      "inputs": [
        {
          "internalType": "address",
          "name": "to",
          "type": "address"
        },
        {
          "internalType": "uint256",
          "name": "tokenId",
          "type": "uint256"
        }
      ],
      "name": "approve",
      "outputs": [],
      "stateMutability": "nonpayable",
      "type": "function"
    },
    {
      "inputs": [
        {
          "internalType": "address",
          "name": "owner",
          "type": "address"
        }
      ],
      "name": "balanceOf",
      "outputs": [
        {
          "internalType": "uint256",
          "name": "",
          "type": "uint256"
        }
      ],
      "stateMutability": "view",
      "type": "function"
    },
    {
      "inputs": [
        {
          "internalType": "uint256",
          "name": "tokenId",
          "type": "uint256"
        }
      ],
      "name": "getApproved",
      "outputs": [
        {
          "internalType": "address",
          "name": "",
          "type": "address"
        }
      ],
      "stateMutability": "view",
      "type": "function"
    },
    {
      "inputs": [],
      "name": "getTotalNFTsMintedSoFar",
      "outputs": [
        {
          "internalType": "uint256",
          "name": "",
          "type": "uint256"
        }
      ],
      "stateMutability": "view",
      "type": "function"
    },
    {
      "inputs": [
        {
          "internalType": "address",
          "name": "owner",
          "type": "address"
        },
        {
          "internalType": "address",
          "name": "operator",
          "type": "address"
        }
      ],
      "name": "isApprovedForAll",
      "outputs": [
        {
          "internalType": "bool",
          "name": "",
          "type": "bool"
        }
      ],
      "stateMutability": "view",
      "type": "function"
    },
    {
      "inputs": [],
      "name": "makeAnEpicNFT",
      "outputs": [],
      "stateMutability": "nonpayable",
      "type": "function"
    },
    {
      "inputs": [],
      "name": "name",
      "outputs": [
        {
          "internalType": "string",
          "name": "",
          "type": "string"
        }
      ],
      "stateMutability": "view",
      "type": "function"
    },
    {
      "inputs": [
        {
          "internalType": "uint256",
          "name": "tokenId",
          "type": "uint256"
        }
      ],
      "name": "ownerOf",
      "outputs": [
        {
          "internalType": "address",
          "name": "",
          "type": "address"
        }
      ],
      "stateMutability": "view",
      "type": "function"
    },
    {
      "inputs": [
        {
          "internalType": "uint256",
          "name": "tokenId",
          "type": "uint256"
        }
      ],
      "name": "pickRandomFirstWord",
      "outputs": [
        {
          "internalType": "string",
          "name": "",
          "type": "string"
        }
      ],
      "stateMutability": "view",
      "type": "function"
    },
    {
      "inputs": [
        {
          "internalType": "uint256",
          "name": "tokenId",
          "type": "uint256"
        }
      ],
      "name": "pickRandomSecondWord",
      "outputs": [
        {
          "internalType": "string",
          "name": "",
          "type": "string"
        }
      ],
      "stateMutability": "view",
      "type": "function"
    },
    {
      "inputs": [
        {
          "internalType": "uint256",
          "name": "tokenId",
          "type": "uint256"
        }
      ],
      "name": "pickRandomThirdWord",
      "outputs": [
        {
          "internalType": "string",
          "name": "",
          "type": "string"
        }
      ],
      "stateMutability": "view",
      "type": "function"
    },
    {
      "inputs": [
        {
          "internalType": "address",
          "name": "from",
          "type": "address"
        },
        {
          "internalType": "address",
          "name": "to",
          "type": "address"
        },
        {
          "internalType": "uint256",
          "name": "tokenId",
          "type": "uint256"
        }
      ],
      "name": "safeTransferFrom",
      "outputs": [],
      "stateMutability": "nonpayable",
      "type": "function"
    },
    {
      "inputs": [
        {
          "internalType": "address",
          "name": "from",
          "type": "address"
        },
        {
          "internalType": "address",
          "name": "to",
          "type": "address"
        },
        {
          "internalType": "uint256",
          "name": "tokenId",
          "type": "uint256"
        },
        {
          "internalType": "bytes",
          "name": "_data",
          "type": "bytes"
        }
      ],
      "name": "safeTransferFrom",
      "outputs": [],
      "stateMutability": "nonpayable",
      "type": "function"
    },
    {
      "inputs": [
        {
          "internalType": "address",
          "name": "operator",
          "type": "address"
        },
        {
          "internalType": "bool",
          "name": "approved",
          "type": "bool"
        }
      ],
      "name": "setApprovalForAll",
      "outputs": [],
      "stateMutability": "nonpayable",
      "type": "function"
    },
    {
      "inputs": [
        {
          "internalType": "bytes4",
          "name": "interfaceId",
          "type": "bytes4"
        }
      ],
      "name": "supportsInterface",
      "outputs": [
        {
          "internalType": "bool",
          "name": "",
          "type": "bool"
        }
      ],
      "stateMutability": "view",
      "type": "function"
    },
    {
      "inputs": [],
      "name": "symbol",
      "outputs": [
        {
          "internalType": "string",
          "name": "",
          "type": "string"
        }
      ],
      "stateMutability": "view",
      "type": "function"
    },
    {
      "inputs": [
        {
          "internalType": "uint256",
          "name": "tokenId",
          "type": "uint256"
        }
      ],
      "name": "tokenURI",
      "outputs": [
        {
          "internalType": "string",
          "name": "",
          "type": "string"
        }
      ],
      "stateMutability": "view",
      "type": "function"
    },
    {
      "inputs": [
        {
          "internalType": "address",
          "name": "from",
          "type": "address"
        },
        {
          "internalType": "address",
          "name": "to",
          "type": "address"
        },
        {
          "internalType": "uint256",
          "name": "tokenId",
          "type": "uint256"
        }
      ],
      "name": "transferFrom",
      "outputs": [],
      "stateMutability": "nonpayable",
      "type": "function"
    }
  ],
  "bytecode": "0x6080604052603260085560405180610160016040528061012f8152602001620062e861012f9139600990805190602001906200003d929190620024f2565b506040518061064001604052806040518060400160405280600681526020017f74656e6e6973000000000000000000000000000000000000000000000000000081525081526020016040518060400160405280600881526020017f7765616b6e65737300000000000000000000000000000000000000000000000081525081526020016040518060400160405280600881526020017f64656c697665727900000000000000000000000000000000000000000000000081525081526020016040518060400160405280600981526020017f6368696c64686f6f64000000000000000000000000000000000000000000000081525081526020016040518060400160405280600881526020017f656c657661746f7200000000000000000000000000000000000000000000000081525081526020016040518060400160405280600a81526020017f7065726d697373696f6e0000000000000000000000000000000000000000000081525081526020016040518060400160405280600681526020017f6566666f7274000000000000000000000000000000000000000000000000000081525081526020016040518060400160405280600381526020017f6c6162000000000000000000000000000000000000000000000000000000000081525081526020016040518060400160405280600881526020017f61756469656e636500000000000000000000000000000000000000000000000081525081526020016040518060400160405280600681526020017f706f7461746f000000000000000000000000000000000000000000000000000081525081526020016040518060400160405280600581526020017f646561746800000000000000000000000000000000000000000000000000000081525081526020016040518060400160405280600681526020017f6c6561646572000000000000000000000000000000000000000000000000000081525081526020016040518060400160405280600681526020017f656469746f72000000000000000000000000000000000000000000000000000081525081526020016040518060400160405280600681526020017f636f756e7479000000000000000000000000000000000000000000000000000081525081526020016040518060400160405280600481526020017f626565720000000000000000000000000000000000000000000000000000000081525081526020016040518060400160405280600681526020017f73696e676572000000000000000000000000000000000000000000000000000081525081526020016040518060400160405280600681526020017f73747564696f000000000000000000000000000000000000000000000000000081525081526020016040518060400160405280600a81526020017f696e766573746d656e740000000000000000000000000000000000000000000081525081526020016040518060400160405280600581526020017f726976657200000000000000000000000000000000000000000000000000000081525081526020016040518060400160405280600981526020017f6f7065726174696f6e000000000000000000000000000000000000000000000081525081526020016040518060400160405280600b81526020017f656e7669726f6e6d656e7400000000000000000000000000000000000000000081525081526020016040518060400160405280600781526020017f636f6e74726f6c0000000000000000000000000000000000000000000000000081525081526020016040518060400160405280600781526020017f6661696c7572650000000000000000000000000000000000000000000000000081525081526020016040518060400160405280600781526020017f686967687761790000000000000000000000000000000000000000000000000081525081526020016040518060400160405280600481526020017f696465610000000000000000000000000000000000000000000000000000000081525081526020016040518060400160405280600881526020017f656d706c6f79657200000000000000000000000000000000000000000000000081525081526020016040518060400160405280600881526020017f617267756d656e7400000000000000000000000000000000000000000000000081525081526020016040518060400160405280600881526020017f737472616e67657200000000000000000000000000000000000000000000000081525081526020016040518060400160405280600581526020017f756e696f6e00000000000000000000000000000000000000000000000000000081525081526020016040518060400160405280600b81526020017f636f6d7065746974696f6e00000000000000000000000000000000000000000081525081526020016040518060400160405280600681526020017f6f6666696365000000000000000000000000000000000000000000000000000081525081526020016040518060400160405280600881526020017f7175616e7469747900000000000000000000000000000000000000000000000081525081526020016040518060400160405280600581526020017f756e636c6500000000000000000000000000000000000000000000000000000081525081526020016040518060400160405280600681526020017f736572696573000000000000000000000000000000000000000000000000000081525081526020016040518060400160405280600881526020017f637573746f6d657200000000000000000000000000000000000000000000000081525081526020016040518060400160405280600881526020017f626972746864617900000000000000000000000000000000000000000000000081525081526020016040518060400160405280600681526020017f73797374656d000000000000000000000000000000000000000000000000000081525081526020016040518060400160405280600981526020017f636f6d6d6974746565000000000000000000000000000000000000000000000081525081526020016040518060400160405280600e81526020017f726573706f6e736962696c69747900000000000000000000000000000000000081525081526020016040518060400160405280600581526020017f6f776e657200000000000000000000000000000000000000000000000000000081525081526020016040518060400160405280600681526020017f657874656e74000000000000000000000000000000000000000000000000000081525081526020016040518060400160405280600781526020017f766172696574790000000000000000000000000000000000000000000000000081525081526020016040518060400160405280600681526020017f7765616c7468000000000000000000000000000000000000000000000000000081525081526020016040518060400160405280600c81526020017f646973747269627574696f6e000000000000000000000000000000000000000081525081526020016040518060400160405280600781526020017f6d616e616765720000000000000000000000000000000000000000000000000081525081526020016040518060400160405280600781526020017f737572676572790000000000000000000000000000000000000000000000000081525081526020016040518060400160405280600781526020017f77656464696e670000000000000000000000000000000000000000000000000081525081526020016040518060400160405280600781526020017f6d6573736167650000000000000000000000000000000000000000000000000081525081526020016040518060400160405280600a81526020017f7265666c656374696f6e0000000000000000000000000000000000000000000081525081526020016040518060400160405280600881526020017f6d6167617a696e65000000000000000000000000000000000000000000000000815250815250600a90603262000be092919062002583565b506040518061064001604052806040518060400160405280600681526020017f63656e747265000000000000000000000000000000000000000000000000000081525081526020016040518060400160405280600681526020017f70756e697368000000000000000000000000000000000000000000000000000081525081526020016040518060400160405280600781526020017f646973637573730000000000000000000000000000000000000000000000000081525081526020016040518060400160405280600481526020017f6772696e0000000000000000000000000000000000000000000000000000000081525081526020016040518060400160405280600781526020017f616476616e63650000000000000000000000000000000000000000000000000081525081526020016040518060400160405280600981526020017f696e74657266657265000000000000000000000000000000000000000000000081525081526020016040518060400160405280600781526020017f7377616c6c6f770000000000000000000000000000000000000000000000000081525081526020016040518060400160405280600781526020017f726563727569740000000000000000000000000000000000000000000000000081525081526020016040518060400160405280600781526020017f616371756972650000000000000000000000000000000000000000000000000081525081526020016040518060400160405280600a81526020017f617070726563696174650000000000000000000000000000000000000000000081525081526020016040518060400160405280600481526020017f66696c650000000000000000000000000000000000000000000000000000000081525081526020016040518060400160405280600581526020017f7365697a6500000000000000000000000000000000000000000000000000000081525081526020016040518060400160405280600581526020017f666f63757300000000000000000000000000000000000000000000000000000081525081526020016040518060400160405280600781526020017f737563636565640000000000000000000000000000000000000000000000000081525081526020016040518060400160405280600581526020017f726561636800000000000000000000000000000000000000000000000000000081525081526020016040518060400160405280600681526020017f61646d697265000000000000000000000000000000000000000000000000000081525081526020016040518060400160405280600781526020017f6469736c696b650000000000000000000000000000000000000000000000000081525081526020016040518060400160405280600681526020017f72656761696e000000000000000000000000000000000000000000000000000081525081526020016040518060400160405280600481526020017f746573740000000000000000000000000000000000000000000000000000000081525081526020016040518060400160405280600581526020017f6d6172636800000000000000000000000000000000000000000000000000000081525081526020016040518060400160405280600781526020017f726573746f72650000000000000000000000000000000000000000000000000081525081526020016040518060400160405280600581526020017f757073657400000000000000000000000000000000000000000000000000000081525081526020016040518060400160405280600781526020017f70726f746563740000000000000000000000000000000000000000000000000081525081526020016040518060400160405280600481526020017f6c6f73650000000000000000000000000000000000000000000000000000000081525081526020016040518060400160405280600781526020017f73706f6e736f720000000000000000000000000000000000000000000000000081525081526020016040518060400160405280600781526020017f636f6e64656d6e0000000000000000000000000000000000000000000000000081525081526020016040518060400160405280600981526020017f7265636f6d6d656e64000000000000000000000000000000000000000000000081525081526020016040518060400160405280600681526020017f626568617665000000000000000000000000000000000000000000000000000081525081526020016040518060400160405280600481526020017f62696e640000000000000000000000000000000000000000000000000000000081525081526020016040518060400160405280600881526020017f6576616c7561746500000000000000000000000000000000000000000000000081525081526020016040518060400160405280600781526020017f6578616d696e650000000000000000000000000000000000000000000000000081525081526020016040518060400160405280600581526020017f64616e636500000000000000000000000000000000000000000000000000000081525081526020016040518060400160405280600681526020017f646f75626c65000000000000000000000000000000000000000000000000000081525081526020016040518060400160405280600681526020017f68616e646c65000000000000000000000000000000000000000000000000000081525081526020016040518060400160405280600781526020017f646973706f73650000000000000000000000000000000000000000000000000081525081526020016040518060400160405280600781526020017f70726573756d650000000000000000000000000000000000000000000000000081525081526020016040518060400160405280600881526020017f646973616772656500000000000000000000000000000000000000000000000081525081526020016040518060400160405280600381526020017f616464000000000000000000000000000000000000000000000000000000000081525081526020016040518060400160405280600481526020017f6c6f6e670000000000000000000000000000000000000000000000000000000081525081526020016040518060400160405280600581526020017f747265617400000000000000000000000000000000000000000000000000000081525081526020016040518060400160405280600481526020017f776973680000000000000000000000000000000000000000000000000000000081525081526020016040518060400160405280600781526020017f657868696269740000000000000000000000000000000000000000000000000081525081526020016040518060400160405280600581526020017f737461726500000000000000000000000000000000000000000000000000000081525081526020016040518060400160405280600681526020017f6368616e6765000000000000000000000000000000000000000000000000000081525081526020016040518060400160405280600681526020017f617474616368000000000000000000000000000000000000000000000000000081525081526020016040518060400160405280600581526020017f617761697400000000000000000000000000000000000000000000000000000081525081526020016040518060400160405280600281526020017f646f00000000000000000000000000000000000000000000000000000000000081525081526020016040518060400160405280600581526020017f707269636500000000000000000000000000000000000000000000000000000081525081526020016040518060400160405280600881526020017f66756e6374696f6e00000000000000000000000000000000000000000000000081525081526020016040518060400160405280600581526020017f636c61696d000000000000000000000000000000000000000000000000000000815250815250600b9060326200178392919062002583565b506040518061064001604052806040518060400160405280600b81526020017f64657366696c616368657300000000000000000000000000000000000000000081525081526020016040518060400160405280600c81526020017f7a6172616e6461646f726173000000000000000000000000000000000000000081525081526020016040518060400160405280600981526020017f66727574657a63616e000000000000000000000000000000000000000000000081525081526020016040518060400160405280600a81526020017f636f6e73656e746972650000000000000000000000000000000000000000000081525081526020016040518060400160405280600881526020017f626167617269616e00000000000000000000000000000000000000000000000081525081526020016040518060400160405280600e81526020017f7269646963756c697a617269616e00000000000000000000000000000000000081525081526020016040518060400160405280600981526020017f68616d61636173656e000000000000000000000000000000000000000000000081525081526020016040518060400160405280600881526020017f736f62617263616e00000000000000000000000000000000000000000000000081525081526020016040518060400160405280600881526020017f64656c657a6e657300000000000000000000000000000000000000000000000081525081526020016040518060400160405280600b81526020017f666f73666f72657363656e00000000000000000000000000000000000000000081525081526020016040518060400160405280600781526020017f636972637569640000000000000000000000000000000000000000000000000081525081526020016040518060400160405280600a81526020017f636f6e6465736162616e0000000000000000000000000000000000000000000081525081526020016040518060400160405280600781526020017f706172746961730000000000000000000000000000000000000000000000000081525081526020016040518060400160405280600d81526020017f726570726573616c69616d6f730000000000000000000000000000000000000081525081526020016040518060400160405280600d81526020017f61686f726e61676173746569730000000000000000000000000000000000000081525081526020016040518060400160405280600981526020017f657374756469616461000000000000000000000000000000000000000000000081525081526020016040518060400160405280600b81526020017f616e746f7263686172656e00000000000000000000000000000000000000000081525081526020016040518060400160405280600a81526020017f636f6d706172746972610000000000000000000000000000000000000000000081525081526020016040518060400160405280600981526020017f6578706c6971756573000000000000000000000000000000000000000000000081525081526020016040518060400160405280600881526020017f7472617375656e6500000000000000000000000000000000000000000000000081525081526020016040518060400160405280600b81526020017f637572696f73656162616e00000000000000000000000000000000000000000081525081526020016040518060400160405280600a81526020017f6a7573746963696569730000000000000000000000000000000000000000000081525081526020016040518060400160405280600981526020017f70697175656172656e000000000000000000000000000000000000000000000081525081526020016040518060400160405280600781526020017f736f706c69646f0000000000000000000000000000000000000000000000000081525081526020016040518060400160405280600781526020017f726f73617365730000000000000000000000000000000000000000000000000081525081526020016040518060400160405280600f81526020017f646573626c616e7175696e61646173000000000000000000000000000000000081525081526020016040518060400160405280600e81526020017f686f73706974616c697a6173656e00000000000000000000000000000000000081525081526020016040518060400160405280600981526020017f70726f6c6570736973000000000000000000000000000000000000000000000081525081526020016040518060400160405280600b81526020017f696d706c616e746162617300000000000000000000000000000000000000000081525081526020016040518060400160405280600b81526020017f7265636f6461737465697300000000000000000000000000000000000000000081525081526020016040518060400160405280600f81526020017f696e73757272656363696f6e616261000000000000000000000000000000000081525081526020016040518060400160405280600881526020017f7a6f7272696e6f7300000000000000000000000000000000000000000000000081525081526020016040518060400160405280600c81526020017f656e63616e61737461726961000000000000000000000000000000000000000081525081526020016040518060400160405280600b81526020017f676f6e66616c6f6e65726f00000000000000000000000000000000000000000081525081526020016040518060400160405280600b81526020017f747269667572636172736500000000000000000000000000000000000000000081525081526020016040518060400160405280600d81526020017f6578706563746f7261726169730000000000000000000000000000000000000081525081526020016040518060400160405280600881526020017f61636f6c6368657300000000000000000000000000000000000000000000000081525081526020016040518060400160405280600a81526020017f6d6563617465656d6f730000000000000000000000000000000000000000000081525081526020016040518060400160405280600c81526020017f61686964616c67617269616e000000000000000000000000000000000000000081525081526020016040518060400160405280600781526020017f72656d657361640000000000000000000000000000000000000000000000000081525081526020016040518060400160405280600b81526020017f72656c616d69657261697300000000000000000000000000000000000000000081525081526020016040518060400160405280600e81526020017f656e636f726e75646172616d6f7300000000000000000000000000000000000081525081526020016040518060400160405280600681526020017f6d6174656173000000000000000000000000000000000000000000000000000081525081526020016040518060400160405280600d81526020017f73616e74616e64657265616e610000000000000000000000000000000000000081525081526020016040518060400160405280600981526020017f65787072696d697261000000000000000000000000000000000000000000000081525081526020016040518060400160405280600881526020017f646963746162616e00000000000000000000000000000000000000000000000081525081526020016040518060400160405280600d81526020017f666c616e7175656162616d6f730000000000000000000000000000000000000081525081526020016040518060400160405280600c81526020017f61726775656e64656162616e000000000000000000000000000000000000000081525081526020016040518060400160405280600a81526020017f61646563656e616461730000000000000000000000000000000000000000000081525081526020016040518060400160405280600b81526020017f616c696361746162616973000000000000000000000000000000000000000000815250815250600c9060326200232692919062002583565b503480156200233457600080fd5b506040518060400160405280600981526020017f5371756172654e465400000000000000000000000000000000000000000000008152506040518060400160405280600681526020017f53515541524500000000000000000000000000000000000000000000000000008152508160009080519060200190620023b9929190620024f2565b508060019080519060200190620023d2929190620024f2565b505050620024206040518060400160405280601e81526020017f54686973206973206d79204e465420636f6e74726163742e20576f61682100008152506200242660201b6200127a1760201c565b620027a4565b620024c6816040516024016200243d9190620026b8565b6040516020818303038152906040527f41304fac000000000000000000000000000000000000000000000000000000007bffffffffffffffffffffffffffffffffffffffffffffffffffffffff19166020820180517bffffffffffffffffffffffffffffffffffffffffffffffffffffffff8381831617835250505050620024c960201b60201c565b50565b60008151905060006a636f6e736f6c652e6c6f679050602083016000808483855afa5050505050565b82805462002500906200272e565b90600052602060002090601f01602090048101928262002524576000855562002570565b82601f106200253f57805160ff191683800117855562002570565b8280016001018555821562002570579182015b828111156200256f57825182559160200191906001019062002552565b5b5090506200257f9190620025ea565b5090565b828054828255906000526020600020908101928215620025d7579160200282015b82811115620025d6578251829080519060200190620025c5929190620024f2565b5091602001919060010190620025a4565b5b509050620025e6919062002609565b5090565b5b8082111562002605576000816000905550600101620025eb565b5090565b5b808211156200262d576000818162002623919062002631565b506001016200260a565b5090565b5080546200263f906200272e565b6000825580601f1062002653575062002674565b601f016020900490600052602060002090810190620026739190620025ea565b5b50565b60006200268482620026dc565b620026908185620026e7565b9350620026a2818560208601620026f8565b620026ad8162002793565b840191505092915050565b60006020820190508181036000830152620026d4818462002677565b905092915050565b600081519050919050565b600082825260208201905092915050565b60005b8381101562002718578082015181840152602081019050620026fb565b8381111562002728576000848401525b50505050565b600060028204905060018216806200274757607f821691505b602082108114156200275e576200275d62002764565b5b50919050565b7f4e487b7100000000000000000000000000000000000000000000000000000000600052602260045260246000fd5b6000601f19601f8301169050919050565b613b3480620027b46000396000f3fe608060405234801561001057600080fd5b50600436106101165760003560e01c806370a08231116100a2578063b88d4fde11610071578063b88d4fde14610305578063c575757a14610321578063c87b56dd14610351578063de9d132f14610381578063e985e9c51461038b57610116565b806370a082311461026b57806395d89b411461029b578063a22cb465146102b9578063b187301f146102d557610116565b8063095ea7b3116100e9578063095ea7b3146101b757806323b872dd146101d35780632de38d68146101ef57806342842e0e1461021f5780636352211e1461023b57610116565b806301ffc9a71461011b578063060475901461014b57806306fdde0314610169578063081812fc14610187575b600080fd5b6101356004803603810190610130919061267a565b6103bb565b604051610142919061338a565b60405180910390f35b61015361049d565b6040516101609190613625565b60405180910390f35b6101716104ba565b60405161017e91906133a5565b60405180910390f35b6101a1600480360381019061019c91906126cc565b61054c565b6040516101ae91906132fa565b60405180910390f35b6101d160048036038101906101cc919061263e565b6105d1565b005b6101ed60048036038101906101e89190612538565b6106e9565b005b610209600480360381019061020491906126cc565b610749565b60405161021691906133a5565b60405180910390f35b61023960048036038101906102349190612538565b610867565b005b610255600480360381019061025091906126cc565b610887565b60405161026291906132fa565b60405180910390f35b610285600480360381019061028091906124d3565b610939565b6040516102929190613625565b60405180910390f35b6102a36109f1565b6040516102b091906133a5565b60405180910390f35b6102d360048036038101906102ce9190612602565b610a83565b005b6102ef60048036038101906102ea91906126cc565b610a99565b6040516102fc91906133a5565b60405180910390f35b61031f600480360381019061031a9190612587565b610bb7565b005b61033b600480360381019061033691906126cc565b610c19565b60405161034891906133a5565b60405180910390f35b61036b600480360381019061036691906126cc565b610d37565b60405161037891906133a5565b60405180910390f35b610389610e89565b005b6103a560048036038101906103a091906124fc565b6111e6565b6040516103b2919061338a565b60405180910390f35b60007f80ac58cd000000000000000000000000000000000000000000000000000000007bffffffffffffffffffffffffffffffffffffffffffffffffffffffff1916827bffffffffffffffffffffffffffffffffffffffffffffffffffffffff1916148061048657507f5b5e139f000000000000000000000000000000000000000000000000000000007bffffffffffffffffffffffffffffffffffffffffffffffffffffffff1916827bffffffffffffffffffffffffffffffffffffffffffffffffffffffff1916145b80610496575061049582611313565b5b9050919050565b600060016104ab600761137d565b6104b591906136f9565b905090565b6060600080546104c9906138c4565b80601f01602080910402602001604051908101604052809291908181526020018280546104f5906138c4565b80156105425780601f1061051757610100808354040283529160200191610542565b820191906000526020600020905b81548152906001019060200180831161052557829003601f168201915b5050505050905090565b60006105578261138b565b610596576040517f08c379a000000000000000000000000000000000000000000000000000000000815260040161058d90613565565b60405180910390fd5b6004600083815260200190815260200160002060009054906101000a900473ffffffffffffffffffffffffffffffffffffffff169050919050565b60006105dc82610887565b90508073ffffffffffffffffffffffffffffffffffffffff168373ffffffffffffffffffffffffffffffffffffffff16141561064d576040517f08c379a0000000000000000000000000000000000000000000000000000000008152600401610644906135c5565b60405180910390fd5b8073ffffffffffffffffffffffffffffffffffffffff1661066c6113f7565b73ffffffffffffffffffffffffffffffffffffffff16148061069b575061069a816106956113f7565b6111e6565b5b6106da576040517f08c379a00000000000000000000000000000000000000000000000000000000081526004016106d1906134a5565b60405180910390fd5b6106e483836113ff565b505050565b6106fa6106f46113f7565b826114b8565b610739576040517f08c379a0000000000000000000000000000000000000000000000000000000008152600401610730906135e5565b60405180910390fd5b610744838383611596565b505050565b6060600061077d610759846117f2565b60405160200161076991906132b6565b60405160208183030381529060405261199f565b9050600a8054905081610790919061393f565b9050600a81815481106107cc577f4e487b7100000000000000000000000000000000000000000000000000000000600052603260045260246000fd5b9060005260206000200180546107e1906138c4565b80601f016020809104026020016040519081016040528092919081815260200182805461080d906138c4565b801561085a5780601f1061082f5761010080835404028352916020019161085a565b820191906000526020600020905b81548152906001019060200180831161083d57829003601f168201915b5050505050915050919050565b61088283838360405180602001604052806000815250610bb7565b505050565b6000806002600084815260200190815260200160002060009054906101000a900473ffffffffffffffffffffffffffffffffffffffff169050600073ffffffffffffffffffffffffffffffffffffffff168173ffffffffffffffffffffffffffffffffffffffff161415610930576040517f08c379a0000000000000000000000000000000000000000000000000000000008152600401610927906134e5565b60405180910390fd5b80915050919050565b60008073ffffffffffffffffffffffffffffffffffffffff168273ffffffffffffffffffffffffffffffffffffffff1614156109aa576040517f08c379a00000000000000000000000000000000000000000000000000000000081526004016109a1906134c5565b60405180910390fd5b600360008373ffffffffffffffffffffffffffffffffffffffff1673ffffffffffffffffffffffffffffffffffffffff168152602001908152602001600020549050919050565b606060018054610a00906138c4565b80601f0160208091040260200160405190810160405280929190818152602001828054610a2c906138c4565b8015610a795780601f10610a4e57610100808354040283529160200191610a79565b820191906000526020600020905b815481529060010190602001808311610a5c57829003601f168201915b5050505050905090565b610a95610a8e6113f7565b83836119d2565b5050565b60606000610acd610aa9846117f2565b604051602001610ab9919061324f565b60405160208183030381529060405261199f565b9050600b8054905081610ae0919061393f565b9050600b8181548110610b1c577f4e487b7100000000000000000000000000000000000000000000000000000000600052603260045260246000fd5b906000526020600020018054610b31906138c4565b80601f0160208091040260200160405190810160405280929190818152602001828054610b5d906138c4565b8015610baa5780601f10610b7f57610100808354040283529160200191610baa565b820191906000526020600020905b815481529060010190602001808311610b8d57829003601f168201915b5050505050915050919050565b610bc8610bc26113f7565b836114b8565b610c07576040517f08c379a0000000000000000000000000000000000000000000000000000000008152600401610bfe906135e5565b60405180910390fd5b610c1384848484611b3f565b50505050565b60606000610c4d610c29846117f2565b604051602001610c39919061322d565b60405160208183030381529060405261199f565b9050600c8054905081610c60919061393f565b9050600c8181548110610c9c577f4e487b7100000000000000000000000000000000000000000000000000000000600052603260045260246000fd5b906000526020600020018054610cb1906138c4565b80601f0160208091040260200160405190810160405280929190818152602001828054610cdd906138c4565b8015610d2a5780601f10610cff57610100808354040283529160200191610d2a565b820191906000526020600020905b815481529060010190602001808311610d0d57829003601f168201915b5050505050915050919050565b6060610d428261138b565b610d81576040517f08c379a0000000000000000000000000000000000000000000000000000000008152600401610d7890613545565b60405180910390fd5b6000600660008481526020019081526020016000208054610da1906138c4565b80601f0160208091040260200160405190810160405280929190818152602001828054610dcd906138c4565b8015610e1a5780601f10610def57610100808354040283529160200191610e1a565b820191906000526020600020905b815481529060010190602001808311610dfd57829003601f168201915b505050505090506000610e2b611b9b565b9050600081511415610e41578192505050610e84565b600082511115610e76578082604051602001610e5e929190613187565b60405160208183030381529060405292505050610e84565b610e7f84611bb2565b925050505b919050565b600854610e96600761137d565b10610ed6576040517f08c379a0000000000000000000000000000000000000000000000000000000008152600401610ecd90613605565b60405180910390fd5b6000610ee2600761137d565b90506000610eef82610749565b90506000610efc83610a99565b90506000610f0984610c19565b90506000838383604051602001610f22939291906131ab565b60405160208183030381529060405290506000600982604051602001610f499291906131dc565b6040516020818303038152906040529050610f986040518060400160405280601581526020017f0a2d2d2d2d2d2d2d2d2d2d2d2d2d2d2d2d2d2d2d2d000000000000000000000081525061127a565b610fa18161127a565b610fdf6040518060400160405280601581526020017f2d2d2d2d2d2d2d2d2d2d2d2d2d2d2d2d2d2d2d2d0a000000000000000000000081525061127a565b600061101383610fee84611c59565b604051602001610fff929190613271565b604051602081830303815290604052611c59565b905060008160405160200161102891906132d8565b60405160208183030381529060405290506110776040518060400160405280601581526020017f0a2d2d2d2d2d2d2d2d2d2d2d2d2d2d2d2d2d2d2d2d000000000000000000000081525061127a565b6110808161127a565b6110be6040518060400160405280601581526020017f2d2d2d2d2d2d2d2d2d2d2d2d2d2d2d2d2d2d2d2d0a000000000000000000000081525061127a565b6110fc6040518060400160405280601581526020017f0a2d2d2d2d2d2d2d2d2d2d2d2d2d2d2d2d2d2d2d2d000000000000000000000081525061127a565b61112481604051602001611110919061320b565b60405160208183030381529060405261127a565b6111626040518060400160405280601581526020017f2d2d2d2d2d2d2d2d2d2d2d2d2d2d2d2d2d2d2d2d0a000000000000000000000081525061127a565b61116c3389611e17565b6111768882611e35565b6111806007611ea9565b6111a3604051806060016040528060258152602001613a9a602591398933611ebf565b7febb98688741ffa4c7589bf325de30cf7becb63de567842e1ccdb6cb949fdc82c33896040516111d4929190613361565b60405180910390a15050505050505050565b6000600560008473ffffffffffffffffffffffffffffffffffffffff1673ffffffffffffffffffffffffffffffffffffffff16815260200190815260200160002060008373ffffffffffffffffffffffffffffffffffffffff1673ffffffffffffffffffffffffffffffffffffffff16815260200190815260200160002060009054906101000a900460ff16905092915050565b6113108160405160240161128e91906133a5565b6040516020818303038152906040527f41304fac000000000000000000000000000000000000000000000000000000007bffffffffffffffffffffffffffffffffffffffffffffffffffffffff19166020820180517bffffffffffffffffffffffffffffffffffffffffffffffffffffffff8381831617835250505050611f5e565b50565b60007f01ffc9a7000000000000000000000000000000000000000000000000000000007bffffffffffffffffffffffffffffffffffffffffffffffffffffffff1916827bffffffffffffffffffffffffffffffffffffffffffffffffffffffff1916149050919050565b600081600001549050919050565b60008073ffffffffffffffffffffffffffffffffffffffff166002600084815260200190815260200160002060009054906101000a900473ffffffffffffffffffffffffffffffffffffffff1673ffffffffffffffffffffffffffffffffffffffff1614159050919050565b600033905090565b816004600083815260200190815260200160002060006101000a81548173ffffffffffffffffffffffffffffffffffffffff021916908373ffffffffffffffffffffffffffffffffffffffff160217905550808273ffffffffffffffffffffffffffffffffffffffff1661147283610887565b73ffffffffffffffffffffffffffffffffffffffff167f8c5be1e5ebec7d5bd14f71427d1e84f3dd0314c0f7b2291e5b200ac8c7c3b92560405160405180910390a45050565b60006114c38261138b565b611502576040517f08c379a00000000000000000000000000000000000000000000000000000000081526004016114f990613485565b60405180910390fd5b600061150d83610887565b90508073ffffffffffffffffffffffffffffffffffffffff168473ffffffffffffffffffffffffffffffffffffffff16148061157c57508373ffffffffffffffffffffffffffffffffffffffff166115648461054c565b73ffffffffffffffffffffffffffffffffffffffff16145b8061158d575061158c81856111e6565b5b91505092915050565b8273ffffffffffffffffffffffffffffffffffffffff166115b682610887565b73ffffffffffffffffffffffffffffffffffffffff161461160c576040517f08c379a000000000000000000000000000000000000000000000000000000000815260040161160390613585565b60405180910390fd5b600073ffffffffffffffffffffffffffffffffffffffff168273ffffffffffffffffffffffffffffffffffffffff16141561167c576040517f08c379a000000000000000000000000000000000000000000000000000000000815260040161167390613445565b60405180910390fd5b611687838383611f87565b6116926000826113ff565b6001600360008573ffffffffffffffffffffffffffffffffffffffff1673ffffffffffffffffffffffffffffffffffffffff16815260200190815260200160002060008282546116e291906137da565b925050819055506001600360008473ffffffffffffffffffffffffffffffffffffffff1673ffffffffffffffffffffffffffffffffffffffff168152602001908152602001600020600082825461173991906136f9565b92505081905550816002600083815260200190815260200160002060006101000a81548173ffffffffffffffffffffffffffffffffffffffff021916908373ffffffffffffffffffffffffffffffffffffffff160217905550808273ffffffffffffffffffffffffffffffffffffffff168473ffffffffffffffffffffffffffffffffffffffff167fddf252ad1be2c89b69c2b068fc378daa952ba7f163c4a11628f55a4df523b3ef60405160405180910390a4505050565b6060600082141561183a576040518060400160405280600181526020017f3000000000000000000000000000000000000000000000000000000000000000815250905061199a565b600082905060005b6000821461186c578080611855906138f6565b915050600a82611865919061374f565b9150611842565b60008167ffffffffffffffff8111156118ae577f4e487b7100000000000000000000000000000000000000000000000000000000600052604160045260246000fd5b6040519080825280601f01601f1916602001820160405280156118e05781602001600182028036833780820191505090505b5090505b60008514611993576001826118f991906137da565b9150600a85611908919061393f565b603061191491906136f9565b60f81b818381518110611950577f4e487b7100000000000000000000000000000000000000000000000000000000600052603260045260246000fd5b60200101907effffffffffffffffffffffffffffffffffffffffffffffffffffffffffffff1916908160001a905350600a8561198c919061374f565b94506118e4565b8093505050505b919050565b6000816040516020016119b29190613170565b6040516020818303038152906040528051906020012060001c9050919050565b8173ffffffffffffffffffffffffffffffffffffffff168373ffffffffffffffffffffffffffffffffffffffff161415611a41576040517f08c379a0000000000000000000000000000000000000000000000000000000008152600401611a3890613465565b60405180910390fd5b80600560008573ffffffffffffffffffffffffffffffffffffffff1673ffffffffffffffffffffffffffffffffffffffff16815260200190815260200160002060008473ffffffffffffffffffffffffffffffffffffffff1673ffffffffffffffffffffffffffffffffffffffff16815260200190815260200160002060006101000a81548160ff0219169083151502179055508173ffffffffffffffffffffffffffffffffffffffff168373ffffffffffffffffffffffffffffffffffffffff167f17307eab39ab6107e8899845ad3d59bd9653f200f220920489ca2b5937696c3183604051611b32919061338a565b60405180910390a3505050565b611b4a848484611596565b611b5684848484611f8c565b611b95576040517f08c379a0000000000000000000000000000000000000000000000000000000008152600401611b8c90613405565b60405180910390fd5b50505050565b606060405180602001604052806000815250905090565b6060611bbd8261138b565b611bfc576040517f08c379a0000000000000000000000000000000000000000000000000000000008152600401611bf3906135a5565b60405180910390fd5b6000611c06611b9b565b90506000815111611c265760405180602001604052806000815250611c51565b80611c30846117f2565b604051602001611c41929190613187565b6040516020818303038152906040525b915050919050565b60606000825190506000811415611c825760405180602001604052806000815250915050611e12565b60006003600283611c9391906136f9565b611c9d919061374f565b6004611ca99190613780565b90506000602082611cba91906136f9565b67ffffffffffffffff811115611cf9577f4e487b7100000000000000000000000000000000000000000000000000000000600052604160045260246000fd5b6040519080825280601f01601f191660200182016040528015611d2b5781602001600182028036833780820191505090505b5090506000604051806060016040528060408152602001613abf604091399050600181016020830160005b86811015611dcf5760038101905062ffffff818a015116603f8160121c168401518060081b905060ff603f83600c1c1686015116810190508060081b905060ff603f8360061c1686015116810190508060081b905060ff603f831686015116810190508060e01b90508084526004840193505050611d56565b506003860660018114611de95760028114611df957611e04565b613d3d60f01b6002830352611e04565b603d60f81b60018303525b508484525050819450505050505b919050565b611e31828260405180602001604052806000815250612123565b5050565b611e3e8261138b565b611e7d576040517f08c379a0000000000000000000000000000000000000000000000000000000008152600401611e7490613505565b60405180910390fd5b80600660008481526020019081526020016000209080519060200190611ea492919061235f565b505050565b6001816000016000828254019250508190555050565b611f59838383604051602401611ed7939291906133c7565b6040516020818303038152906040527fe3849f79000000000000000000000000000000000000000000000000000000007bffffffffffffffffffffffffffffffffffffffffffffffffffffffff19166020820180517bffffffffffffffffffffffffffffffffffffffffffffffffffffffff8381831617835250505050611f5e565b505050565b60008151905060006a636f6e736f6c652e6c6f679050602083016000808483855afa5050505050565b505050565b6000611fad8473ffffffffffffffffffffffffffffffffffffffff1661217e565b15612116578373ffffffffffffffffffffffffffffffffffffffff1663150b7a02611fd66113f7565b8786866040518563ffffffff1660e01b8152600401611ff89493929190613315565b602060405180830381600087803b15801561201257600080fd5b505af192505050801561204357506040513d601f19601f8201168201806040525081019061204091906126a3565b60015b6120c6573d8060008114612073576040519150601f19603f3d011682016040523d82523d6000602084013e612078565b606091505b506000815114156120be576040517f08c379a00000000000000000000000000000000000000000000000000000000081526004016120b590613405565b60405180910390fd5b805181602001fd5b63150b7a0260e01b7bffffffffffffffffffffffffffffffffffffffffffffffffffffffff1916817bffffffffffffffffffffffffffffffffffffffffffffffffffffffff19161491505061211b565b600190505b949350505050565b61212d8383612191565b61213a6000848484611f8c565b612179576040517f08c379a000000000000000000000000000000000000000000000000000000000815260040161217090613405565b60405180910390fd5b505050565b600080823b905060008111915050919050565b600073ffffffffffffffffffffffffffffffffffffffff168273ffffffffffffffffffffffffffffffffffffffff161415612201576040517f08c379a00000000000000000000000000000000000000000000000000000000081526004016121f890613525565b60405180910390fd5b61220a8161138b565b1561224a576040517f08c379a000000000000000000000000000000000000000000000000000000000815260040161224190613425565b60405180910390fd5b61225660008383611f87565b6001600360008473ffffffffffffffffffffffffffffffffffffffff1673ffffffffffffffffffffffffffffffffffffffff16815260200190815260200160002060008282546122a691906136f9565b92505081905550816002600083815260200190815260200160002060006101000a81548173ffffffffffffffffffffffffffffffffffffffff021916908373ffffffffffffffffffffffffffffffffffffffff160217905550808273ffffffffffffffffffffffffffffffffffffffff16600073ffffffffffffffffffffffffffffffffffffffff167fddf252ad1be2c89b69c2b068fc378daa952ba7f163c4a11628f55a4df523b3ef60405160405180910390a45050565b82805461236b906138c4565b90600052602060002090601f01602090048101928261238d57600085556123d4565b82601f106123a657805160ff19168380011785556123d4565b828001600101855582156123d4579182015b828111156123d35782518255916020019190600101906123b8565b5b5090506123e191906123e5565b5090565b5b808211156123fe5760008160009055506001016123e6565b5090565b600061241561241084613671565b613640565b90508281526020810184848401111561242d57600080fd5b612438848285613882565b509392505050565b60008135905061244f81613a3d565b92915050565b60008135905061246481613a54565b92915050565b60008135905061247981613a6b565b92915050565b60008151905061248e81613a6b565b92915050565b600082601f8301126124a557600080fd5b81356124b5848260208601612402565b91505092915050565b6000813590506124cd81613a82565b92915050565b6000602082840312156124e557600080fd5b60006124f384828501612440565b91505092915050565b6000806040838503121561250f57600080fd5b600061251d85828601612440565b925050602061252e85828601612440565b9150509250929050565b60008060006060848603121561254d57600080fd5b600061255b86828701612440565b935050602061256c86828701612440565b925050604061257d868287016124be565b9150509250925092565b6000806000806080858703121561259d57600080fd5b60006125ab87828801612440565b94505060206125bc87828801612440565b93505060406125cd878288016124be565b925050606085013567ffffffffffffffff8111156125ea57600080fd5b6125f687828801612494565b91505092959194509250565b6000806040838503121561261557600080fd5b600061262385828601612440565b925050602061263485828601612455565b9150509250929050565b6000806040838503121561265157600080fd5b600061265f85828601612440565b9250506020612670858286016124be565b9150509250929050565b60006020828403121561268c57600080fd5b600061269a8482850161246a565b91505092915050565b6000602082840312156126b557600080fd5b60006126c38482850161247f565b91505092915050565b6000602082840312156126de57600080fd5b60006126ec848285016124be565b91505092915050565b6126fe8161380e565b82525050565b61270d81613820565b82525050565b600061271e826136b6565b61272881856136cc565b9350612738818560208601613891565b61274181613a2c565b840191505092915050565b6000612757826136c1565b61276181856136dd565b9350612771818560208601613891565b61277a81613a2c565b840191505092915050565b6000612790826136c1565b61279a81856136ee565b93506127aa818560208601613891565b80840191505092915050565b600081546127c3816138c4565b6127cd81866136ee565b945060018216600081146127e857600181146127f95761282c565b60ff1983168652818601935061282c565b612802856136a1565b60005b8381101561282457815481890152600182019150602081019050612805565b838801955050505b50505092915050565b60006128426025836136ee565b91507f68747470733a2f2f6e6674707265766965772e30786465762e636f6465732f3f60008301527f636f64653d0000000000000000000000000000000000000000000000000000006020830152602582019050919050565b60006128a86032836136dd565b91507f4552433732313a207472616e7366657220746f206e6f6e20455243373231526560008301527f63656976657220696d706c656d656e74657200000000000000000000000000006020830152604082019050919050565b600061290e601c836136dd565b91507f4552433732313a20746f6b656e20616c7265616479206d696e746564000000006000830152602082019050919050565b600061294e600a836136ee565b91507f54484952445f574f5244000000000000000000000000000000000000000000006000830152600a82019050919050565b600061298e6024836136dd565b91507f4552433732313a207472616e7366657220746f20746865207a65726f2061646460008301527f72657373000000000000000000000000000000000000000000000000000000006020830152604082019050919050565b60006129f46019836136dd565b91507f4552433732313a20617070726f766520746f2063616c6c6572000000000000006000830152602082019050919050565b6000612a346063836136ee565b91507f222c20226465736372697074696f6e223a20224120686967686c79206163636c60008301527f61696d656420636f6c6c656374696f6e206f6620737175617265732e222c202260208301527f696d616765223a2022646174613a696d6167652f7376672b786d6c3b6261736560408301527f36342c00000000000000000000000000000000000000000000000000000000006060830152606382019050919050565b6000612ae6600b836136ee565b91507f5345434f4e445f574f52440000000000000000000000000000000000000000006000830152600b82019050919050565b6000612b26602c836136dd565b91507f4552433732313a206f70657261746f7220717565727920666f72206e6f6e657860008301527f697374656e7420746f6b656e00000000000000000000000000000000000000006020830152604082019050919050565b6000612b8c600d836136ee565b91507f3c2f746578743e3c2f7376673e000000000000000000000000000000000000006000830152600d82019050919050565b6000612bcc6038836136dd565b91507f4552433732313a20617070726f76652063616c6c6572206973206e6f74206f7760008301527f6e6572206e6f7220617070726f76656420666f7220616c6c00000000000000006020830152604082019050919050565b6000612c32602a836136dd565b91507f4552433732313a2062616c616e636520717565727920666f7220746865207a6560008301527f726f2061646472657373000000000000000000000000000000000000000000006020830152604082019050919050565b6000612c986029836136dd565b91507f4552433732313a206f776e657220717565727920666f72206e6f6e657869737460008301527f656e7420746f6b656e00000000000000000000000000000000000000000000006020830152604082019050919050565b6000612cfe602e836136dd565b91507f45524337323155524953746f726167653a2055524920736574206f66206e6f6e60008301527f6578697374656e7420746f6b656e0000000000000000000000000000000000006020830152604082019050919050565b6000612d646002836136ee565b91507f227d0000000000000000000000000000000000000000000000000000000000006000830152600282019050919050565b6000612da46020836136dd565b91507f4552433732313a206d696e7420746f20746865207a65726f20616464726573736000830152602082019050919050565b6000612de46031836136dd565b91507f45524337323155524953746f726167653a2055524920717565727920666f722060008301527f6e6f6e6578697374656e7420746f6b656e0000000000000000000000000000006020830152604082019050919050565b6000612e4a602c836136dd565b91507f4552433732313a20617070726f76656420717565727920666f72206e6f6e657860008301527f697374656e7420746f6b656e00000000000000000000000000000000000000006020830152604082019050919050565b6000612eb06029836136dd565b91507f4552433732313a207472616e73666572206f6620746f6b656e2074686174206960008301527f73206e6f74206f776e00000000000000000000000000000000000000000000006020830152604082019050919050565b6000612f16602f836136dd565b91507f4552433732314d657461646174613a2055524920717565727920666f72206e6f60008301527f6e6578697374656e7420746f6b656e00000000000000000000000000000000006020830152604082019050919050565b6000612f7c600a836136ee565b91507f7b226e616d65223a2022000000000000000000000000000000000000000000006000830152600a82019050919050565b6000612fbc6021836136dd565b91507f4552433732313a20617070726f76616c20746f2063757272656e74206f776e6560008301527f72000000000000000000000000000000000000000000000000000000000000006020830152604082019050919050565b6000613022600a836136ee565b91507f46495253545f574f5244000000000000000000000000000000000000000000006000830152600a82019050919050565b6000613062601d836136ee565b91507f646174613a6170706c69636174696f6e2f6a736f6e3b6261736536342c0000006000830152601d82019050919050565b60006130a26031836136dd565b91507f4552433732313a207472616e736665722063616c6c6572206973206e6f74206f60008301527f776e6572206e6f7220617070726f7665640000000000000000000000000000006020830152604082019050919050565b6000613108602c836136dd565b91507f416c726561647920353020746f6b656e7320617265206d696e7465642120536f60008301527f72727920746f6f206c61746500000000000000000000000000000000000000006020830152604082019050919050565b61316a81613878565b82525050565b600061317c8284612785565b915081905092915050565b60006131938285612785565b915061319f8284612785565b91508190509392505050565b60006131b78286612785565b91506131c38285612785565b91506131cf8284612785565b9150819050949350505050565b60006131e882856127b6565b91506131f48284612785565b91506131ff82612b7f565b91508190509392505050565b600061321682612835565b91506132228284612785565b915081905092915050565b600061323882612941565b91506132448284612785565b915081905092915050565b600061325a82612ad9565b91506132668284612785565b915081905092915050565b600061327c82612f6f565b91506132888285612785565b915061329382612a27565b915061329f8284612785565b91506132aa82612d57565b91508190509392505050565b60006132c182613015565b91506132cd8284612785565b915081905092915050565b60006132e382613055565b91506132ef8284612785565b915081905092915050565b600060208201905061330f60008301846126f5565b92915050565b600060808201905061332a60008301876126f5565b61333760208301866126f5565b6133446040830185613161565b81810360608301526133568184612713565b905095945050505050565b600060408201905061337660008301856126f5565b6133836020830184613161565b9392505050565b600060208201905061339f6000830184612704565b92915050565b600060208201905081810360008301526133bf818461274c565b905092915050565b600060608201905081810360008301526133e1818661274c565b90506133f06020830185613161565b6133fd60408301846126f5565b949350505050565b6000602082019050818103600083015261341e8161289b565b9050919050565b6000602082019050818103600083015261343e81612901565b9050919050565b6000602082019050818103600083015261345e81612981565b9050919050565b6000602082019050818103600083015261347e816129e7565b9050919050565b6000602082019050818103600083015261349e81612b19565b9050919050565b600060208201905081810360008301526134be81612bbf565b9050919050565b600060208201905081810360008301526134de81612c25565b9050919050565b600060208201905081810360008301526134fe81612c8b565b9050919050565b6000602082019050818103600083015261351e81612cf1565b9050919050565b6000602082019050818103600083015261353e81612d97565b9050919050565b6000602082019050818103600083015261355e81612dd7565b9050919050565b6000602082019050818103600083015261357e81612e3d565b9050919050565b6000602082019050818103600083015261359e81612ea3565b9050919050565b600060208201905081810360008301526135be81612f09565b9050919050565b600060208201905081810360008301526135de81612faf565b9050919050565b600060208201905081810360008301526135fe81613095565b9050919050565b6000602082019050818103600083015261361e816130fb565b9050919050565b600060208201905061363a6000830184613161565b92915050565b6000604051905081810181811067ffffffffffffffff82111715613667576136666139fd565b5b8060405250919050565b600067ffffffffffffffff82111561368c5761368b6139fd565b5b601f19601f8301169050602081019050919050565b60008190508160005260206000209050919050565b600081519050919050565b600081519050919050565b600082825260208201905092915050565b600082825260208201905092915050565b600081905092915050565b600061370482613878565b915061370f83613878565b9250827fffffffffffffffffffffffffffffffffffffffffffffffffffffffffffffffff0382111561374457613743613970565b5b828201905092915050565b600061375a82613878565b915061376583613878565b9250826137755761377461399f565b5b828204905092915050565b600061378b82613878565b915061379683613878565b9250817fffffffffffffffffffffffffffffffffffffffffffffffffffffffffffffffff04831182151516156137cf576137ce613970565b5b828202905092915050565b60006137e582613878565b91506137f083613878565b92508282101561380357613802613970565b5b828203905092915050565b600061381982613858565b9050919050565b60008115159050919050565b60007fffffffff0000000000000000000000000000000000000000000000000000000082169050919050565b600073ffffffffffffffffffffffffffffffffffffffff82169050919050565b6000819050919050565b82818337600083830152505050565b60005b838110156138af578082015181840152602081019050613894565b838111156138be576000848401525b50505050565b600060028204905060018216806138dc57607f821691505b602082108114156138f0576138ef6139ce565b5b50919050565b600061390182613878565b91507fffffffffffffffffffffffffffffffffffffffffffffffffffffffffffffffff82141561393457613933613970565b5b600182019050919050565b600061394a82613878565b915061395583613878565b9250826139655761396461399f565b5b828206905092915050565b7f4e487b7100000000000000000000000000000000000000000000000000000000600052601160045260246000fd5b7f4e487b7100000000000000000000000000000000000000000000000000000000600052601260045260246000fd5b7f4e487b7100000000000000000000000000000000000000000000000000000000600052602260045260246000fd5b7f4e487b7100000000000000000000000000000000000000000000000000000000600052604160045260246000fd5b6000601f19601f8301169050919050565b613a468161380e565b8114613a5157600080fd5b50565b613a5d81613820565b8114613a6857600080fd5b50565b613a748161382c565b8114613a7f57600080fd5b50565b613a8b81613878565b8114613a9657600080fd5b5056fe416e204e465420772f20494420257320686173206265656e206d696e74656420746f2025734142434445464748494a4b4c4d4e4f505152535455565758595a6162636465666768696a6b6c6d6e6f707172737475767778797a303132333435363738392b2fa2646970667358221220bfafa6023e301584d5a5ab1209a90879657e45f363ef339e145990f4254900ad64736f6c634300080000333c73766720786d6c6e733d27687474703a2f2f7777772e77332e6f72672f323030302f73766727207072657365727665417370656374526174696f3d27784d696e594d696e206d656574272076696577426f783d273020302033353020333530273e3c7374796c653e2e62617365207b2066696c6c3a2077686974653b20666f6e742d66616d696c793a2073657269663b20666f6e742d73697a653a20323470783b207d3c2f7374796c653e3c726563742077696474683d273130302527206865696768743d2731303025272066696c6c3d27626c61636b27202f3e3c7465787420783d273530252720793d273530252720636c6173733d27626173652720646f6d696e616e742d626173656c696e653d276d6964646c652720746578742d616e63686f723d276d6964646c65273e",
  "linkReferences": {},
  "deployedLinkReferences": {}
}